:020000041000EA
:10000000002000083B0100100D0000009D010010C1
:1000100000000000000000000000000000000000E0
:100020000000000000000000000000009901001026
:10003000000000000000000099010010990100106C
:100040009901001099010010990100109901001008
:1000500099010010990100109901001099010010F8
:1000600099010010990100109901001099010010E8
:1000700099010010990100109901001099010010D8
:100080000448054B10B5834203D0044B002B00D02D
:10009000984710BD780300087803000800000000AE
:1000A00006480749091A8B10C90FC91810B549101D
:1000B00003D0044B002B00D0984710BD78030008F4
:1000C000780300080000000010B5074C2378002BCF
:1000D00009D1FFF7D5FF054B002B02D0044800E003
:1000E00000BF0123237010BDB00300080000000012
:1000F0006C150010054B10B5002B03D004490548C2
:1001000000E000BFFFF7CCFF10BDC04600000000BC
:10011000B40300086C1500100230800803D00130D1
:100120000238FCD1C046C0467047EFF3108072B66B
:10013000704780F3108870477047FFF7FDFF72B675
:100140000F4C104DAC4209DA21686268A368043B89
:1001500002DBC858D050FAE70C34F3E70A490B4ADF
:100160000020521A02DD043A8850FCDC0848094994
:100170000860BFF34F8F00F0F1FE00F09FFEFEE736
:100180007815001090150010B0030008C80500088D
:100190000000000808ED00E0FEE7FEE700B50420DF
:1001A0007146084202D0EFF3098002E0EFF30880C5
:1001B000043000F0A7FCFEE7014B18607047C04612
:1001C000CC030008044B1B681A00BA3212881B6A61
:1001D0005043C0187047C046CC030008A02300B5A8
:1001E0001B06984226D015D8802825D00AD810287A
:1001F00024D0402824D000280BD0154809E0A420A2
:10020000C00306E08022134B520090421CD098425B
:10021000F3D100BD104B984218D0104BC0180428E1
:10022000EBD800F039FFECEA0F0305000C48F0E7CB
:100230000C48EEE70020ECE70B48EAE70B48E8E75C
:100240000B48E6E70B48E4E71800E2E7A020D7E711
:10025000FF00520006005200090000A0FFFFFF0F40
:10026000020052000300520005005200010050003D
:10027000020050000100520010B50020FFF7A2FF5D
:100280000A4B1C682300BC331B68C0180368002B92
:100290000ADB074B1868FFF7A1FF012263689A6029
:1002A0009A68002AFCD110BD0248FCE7CC03000884
:1002B000D003000802005000064B1B68BC331B68CB
:1002C000C3181B68002B03DA89B241600020704715
:1002D0000148FCE7CC03000801008A000368002BFA
:1002E00004DA89B2C2608160002070470048FCE7F0
:1002F00001008A00064B1B68BC331B68C3181B68CF
:10030000002B03DAC36800200B6070470148FCE74C
:10031000CC03000801008A00024B1A68002A00D1B1
:1003200018607047E4030008F0B52C24154E4443D0
:1003300030681F000019FF241E0A26402740124C77
:100340001B0C256807602C6A46608360BA352D88CF
:100350006F433F190761370080377F01E7190B4D65
:1003600076014761A4191F043B43641923600023ED
:100370008361059BC2610162002B01D01B888381D0
:10038000F0BDC046E4030008CC03000808100000DC
:10039000F0B50400236987B0026841680393A3683D
:1003A00004AD1732C0682B806A80039BA26A059156
:1003B0000095E16A266A676AFFF7B6FF00213B00F5
:1003C0000A0030000091FFF7AFFF2800216B00F01A
:1003D0004DFB0022AB5E002B06DB1F2213401E3AB2
:1003E0009A401300014A136007B0F0BD00E100E03D
:1003F000F0B585B003931B4B16001C682C235843A3
:100400004B4320180769E418002F27D0A569002D59
:1004100026D13B68002B23DA134B1B6834331B783F
:100420000193436801996068029300F0C5FE0122C0
:100430008A40336812049BB2134333600123FE6089
:10044000A361039B01996362029800F0B5FE01234A
:100450008B409BB2BB60280005B0F0BD034DFAE7AE
:10046000034DF8E7E4030008CC03000804028A0007
:1004700007028A0073B5002642690400D568019618
:100480002B0CB34221D01B0413601368194B006975
:100490001B68BC331B68C3181B68B34215DA01A97B
:1004A000FFF728FFB0420CD10198E26903681E0CE7
:1004B000DBB29A4205D9226A9B009B58002B00D0E0
:1004C000984731002069FFF7F7FEADB2002D09D043
:1004D00063691D6000251B68636AAB4205D09847BD
:1004E0006562A56163691B6873BDA36A002BF8D0C0
:1004F0009847F6E7CC0300082C2310B54343034A82
:100500001068C018FFF7B6FF10BDC046E40300082E
:100510001A4B70B51A680C00130033331B788342F2
:100520002AD9002928D00D681F212B000B400D422D
:1005300022D11100BA310988126A48431900104DBE
:100540008018286022685209934210D30021FFF7D7
:10055000B3FE002122002868FFF7C0FE011E04D16F
:100560002868FFF7A9FE002800D0064870BD626821
:100570009E00B1500133E5E70348F7E7CC030008DC
:10058000E803000801018A0003018A000B0010B58E
:10059000002A0DD1002914D10B4A0C4C11680A0015
:1005A000BA321288096A424352182260180010BDFC
:1005B000002906D006490B604A60FFF7A9FF030037
:1005C000F4E7044BF2E7C046CC030008E803000858
:1005D0007803000803018A00F7B51B4F04003B684D
:1005E0000E00002B2BD0DB681A68824229D9002527
:1005F0005B680193A94202D1FFF797FD05003868B7
:100600000368002B19DA1F23012223409A40640952
:10061000019BA4001C1921680A420CD0914321605F
:1006200000240021FFF748FE002E02D12800FFF72A
:1006300080FD2000FEBD054CF3E7054CF4E7034CBC
:10064000F7E7044CF5E7C046E8030008020188001C
:100650000301880004018A000C4B1B68002B11D099
:10066000DB681A6882420FD959681F234209184073
:100670001E3B8340920050581840431E9841044B43
:10068000C01870470348FCE70348FAE7E80300088E
:10069000000188000201880004018A00054B1B68E4
:1006A0001A0088321B6812689B181868000AC0B2CA
:1006B0007047C046CC030008044B1B681A00883200
:1006C0001B6812689B181868000E7047CC0300085E
:1006D000034BE0308000C0588006800F7047C04652
:1006E00000002640024B18694007C00F7047C04603
:1006F00000002740A6220549D2008B580220DB4388
:100700009B0702D0012388581840704700002640FC
:1007100010B5FFF7EFFF0023022801D1014B1B6842
:10072000180010BDF0030008084A83009B18D0226F
:100730009200985807221040042806D1C022920047
:100740009B581F22FC30134018437047000026407E
:1007500010B5FFF7E9FF88235B0098421CD00BD847
:10076000012813D0022814D0431E9841104B404258
:100770001840104BC01810BD1223FF33984210D000
:100780001423FF33984210D00020F4E70A4B186876
:10079000F1E7FFF7BDFFEEE7084A094BD058C00F5D
:1007A00001E0FFF79FFFC003E5E7044A054BF5E7CB
:1007B00000EE85FF00127A00EC03000800002640DE
:1007C0000C0500003C050000B023154ADB00D3589F
:1007D00010B59903DB01DB0F890BC371114B01606D
:1007E000D3580F24D904DB01DB0D0381B123DB00D7
:1007F000D358C90C81801900214081721909214008
:10080000C172D9029B009B0F8373074BC90CD3584D
:1008100081815A05DB01520FDB0D8271038210BD0D
:1008200000002640840500008C0500008030034B4A
:10083000FF308000C058C00F7047C04600002640FF
:100840000F4B421E1B683F331B78934216D98030F2
:100850007F220C4BFF308000C3581F201A400A70C3
:100860001A0A02404A701A0C02408A701A01C240E9
:1008700000209B009B0FCA700B7170470248FCE779
:10088000CC0300080000264001004A00F0B589B002
:1008900003AD2800FFF798FFB0230026164ADB00BF
:1008A000D358B34224DAAB7B022B21D0AC88B442BC
:1008B0001ED03000ED79039FFFF74AFF220033007E
:1008C00031000190681C00F09DFC0C000500330015
:1008D0003A003100019800F095FCE6076A083243BF
:1008E0006308801859412A00230000F06BFC0600C1
:1008F000300009B0F0BDC04600002640F7B5234BDC
:1009000006001B683F331B78002B08D000283BD023
:10091000834204D36946FFF793FF041E01D00026EB
:1009200032E03000FFF782FF2300002805D06B463D
:100930001C79023C23005A1E93416A46177854786A
:100940009578002BEBD0002CE9D0002DE7D03000BB
:10095000FFF7FEFE002306002A002000190000F029
:1009600051FC00230C0005003A003000190000F093
:1009700049FCE6076A0832436308801859412A0097
:10098000230000F01FFC06003000FEBDCC03000871
:1009900010B5041E04D1FFF779FF002806D008E047
:1009A000064B1B683F331B78834203D22000FFF7BE
:1009B000CFFE10BDFFF7A2FFEFE7C046CC03000853
:1009C00070B50500FFF784FEE035074BAD0004006D
:1009D000E8580F231840FFF7DBFF0123A3405B0813
:1009E0001818E04070BDC04600002640144B30B5DA
:1009F0001B6807241A002C3212781F2A15D8820887
:100A00001500A5432C1E0FD103342040A040814087
:100A10001B68920020339B180A00FF2181401C684C
:100A2000624011406140196030BD1A688023204047
:100A30001B06034380208001091889008B50F3E7CF
:100A4000CC030008064B10B59A68064C10308300A2
:100A5000A24202D19858995010BD034AD058FBE7E2
:100A600000ED00E00000000800000010F8B50700ED
:100A70000E0000283AD00023C45E002C28DB4188F9
:100A80002000FFF7B3FF0025FF22032094462040FB
:100A90007968C0006746824089013940D24381406D
:100AA000A3B2002C16DB1248A3089B001B18C02021
:100AB00080001F583A400A431A500E4B9A680E4B5A
:100AC0009A4203D131002000FFF7BCFF2800F8BD97
:100AD0000A4DD9E70F200340083B06489B089B00BE
:100AE0001B18D86902400A43DA61E6E7034DEDE7D7
:100AF00000E100E000ED00E0000000080100560009
:100B0000FEE7000002680A4B10B51A6042685A609E
:100B100082689A60C268DA6002691A6142695A6141
:100B200082699A61C269DA61FFF7EAFF10BDC046C7
:100B300090030008B0235B055A782120002A01D0D9
:100B40005878C0B27047B0235B059A89002A02D05A
:100B5000988980B2704780204000FBE7254B73B531
:100B600086000D00F458042901D0012925D1002068
:100B70000EE0A3682B420AD1E36829001A685B687B
:100B8000684601930092236898471B4B1C60646978
:100B9000002C0AD0194B9842EBD1012DE9D1164A0D
:100BA000174B126815489A5176BD012DFCD1134B95
:100BB0009842F4D0124B9C51F6E7022914D026003B
:100BC0006469002CFBD10020002EEDD0B3682B42CD
:100BD00008D1F36829001A685B686846019300929F
:100BE000336898473669EFE7034B1B68181EDBD064
:100BF0001E69E8E73404000830040008FF004200E2
:100C00001C0400081A4B1B68190088311A6809680F
:100C100051180968016219008C310968521812686C
:100C200042621A0046321278002A1FD09A68E032D7
:100C30001268D2061AD5F222DB68D2019A580260F5
:100C4000F022D2019A5842600A4A9A5882600A4AAF
:100C50009A58C260094A9A580261094A9A584261F0
:100C6000084A9A588261084A9B58C3617047C04637
:100C7000CC03000804780000087800000C7800001D
:100C80001078000014780000187800001A4B1B68D8
:100C90001900883109681A685218016A1160190030
:100CA0008C3109681A685218416A11601A0046327C
:100CB0001278002A1ED09A68E0321268D20619D53E
:100CC000F0224168DB68D201995081680B4A995043
:100CD000C1680B4A995001690A4A995041690A4A08
:100CE00099508169094A9950C169094A9950016826
:100CF000E83299507047C046CC03000804780000E1
:100D0000087800000C7800001078000014780000CB
:100D100018780000F7B50500FFF70CFF564F01905B
:100D20007B68002B00D06FE0FFF7FFF97B68009035
:100D3000002B00D07CE0514B07271C682300BA33FE
:100D40001B885F43236AFB181A68002AFCDADB68F9
:100D5000DA001ED51B0F4A481E07FFF753FF22007B
:100D600088321268236847499B181A6801980A401C
:100D7000212862D19020000102431A6022008C32A7
:100D8000126823689B181A680A40104318603C4B8D
:100D90003343802292051343226A0024BF18FB606C
:100DA0007C607B68FFF7CFFE8023344F5B00984266
:100DB00046D1280000F058FB3F6807223B00BA33B9
:100DC0001E883B6A5643F3181A68002AFCDADD686D
:100DD000EB0003D528010009FFF758FF00222A4B3A
:100DE00000981D403B6AF318DD605A60FFF7A1F9D7
:100DF000002C10D1204B5B68002B03D00821012070
:100E0000FFF7ACFE2000FEBD01210800FFF7A6FEA3
:100E1000041E00D188E7184B5B68002B03D0022129
:100E20000120FFF79BFE194B9C42EBD0184CE9E7E1
:100E300004210120FFF792FE7DE7802040009BE720
:100E40003B681A00BC32196A1268521811680029EE
:100E500010DBBA331B889B181B68002B0ADB0423AA
:100E60000C4A11690B431361012D01D030BFA3E778
:100E700020BFA1E7054C9FE734040008CC0300081D
:100E8000F4030008FF00FFFFFFFFFFDF0500420043
:100E9000FF00420000ED00E0C02280200649520021
:100EA0008B58C0059B009B0803438B5080238858B8
:100EB0001B0603438B5070470000264010B562B6F6
:100EC000034800F0C3F80020FFF724FFFBE7C0460B
:100ED0000020001010B50020FFF70EFB10BD70477A
:100EE00070B50020FFF76CFD041E28D0144B18606D
:100EF000FFF7E2FB411C200000F0D8F8114B040082
:100F00001860FFF7CBFB411C200000F0CFF8040075
:100F10000D4B013C18600D49200000F0C7F8FA2184
:100F20000B4D013028708900200000F0BFF8094DFA
:100F3000013028600020FFF743FD074B186070BDAB
:100F4000880000088C0000088000000840420F0064
:100F500094000008900000088400000810B52048A4
:100F6000FFF72AF9B022E02130201E4CD200A3580E
:100F700089005B005B08A350635883436350802360
:100F80005B04A350184B194AE250A022043392018B
:100F9000E250FF22164BE250FFF77EFFC0220121F4
:100FA0005200A3588B43A350FFF799FFFFF798FF18
:100FB000104B03201A681300BA33198807234B43D8
:100FC000126A80219B180022DA605A600A4AFFF7F1
:100FD000DDFA0A48FFF7A0F90948FFF7D9F910BD73
:100FE0007814001000002640840500000100020073
:100FF0008C050000CC0300088003000848040008AA
:10100000381500109023034A5B01D0580323184081
:101010007047C0460000204010B59024FFF785F8C7
:10102000074B64011959074A1140074A0A431A51EC
:10103000102259681142FCD0FFF77BF810BDC04662
:1010400000002040FCFF00000100FA05F8B59026E2
:101050000E4C76010700FFF768F8A3590500DB4343
:101060009B0701D1FFF7D8FF80239B00E750A259CF
:10107000074B1A40074B1343A351102362681A42CF
:10108000FCD02800FFF755F8F8BDC046000020400E
:10109000FCFF00000300FA0502B47146490849004C
:1010A000095649008E4402BC7047C04600224308DE
:1010B0008B4274D303098B425FD3030A8B4244D320
:1010C000030B8B4228D3030C8B420DD3FF22090262
:1010D00012BA030C8B4202D31212090265D0030B21
:1010E0008B4219D300E0090AC30B8B4201D3CB0317
:1010F000C01A5241830B8B4201D38B03C01A524159
:10110000430B8B4201D34B03C01A5241030B8B425A
:1011100001D30B03C01A5241C30A8B4201D3CB0245
:10112000C01A5241830A8B4201D38B02C01A52412A
:10113000430A8B4201D34B02C01A5241030A8B422D
:1011400001D30B02C01A5241CDD2C3098B4201D345
:10115000CB01C01A524183098B4201D38B01C01AC3
:10116000524143098B4201D34B01C01A524103093A
:101170008B4201D30B01C01A5241C3088B4201D3E9
:10118000CB00C01A524183088B4201D38B00C01A96
:10119000524143088B4201D34B00C01A5241411ABD
:1011A00000D20146524110467047FFE701B50020CA
:1011B00000F006F802BDC0460029F7D076E7704778
:1011C0007047C046002B11D1002A0FD1002900D151
:1011D000002802D00021C943080007B4024802A138
:1011E0004018029003BDC046D9FFFFFF03B4684614
:1011F00001B5029800F034F8019B9E4602B00CBC89
:101200007047C046F0B5CE469946030C9C46130481
:1012100047461B0C1D000E0061460404240C80B5DB
:101220000700100C4B436543414360432C0CC0182E
:1012300020188C46834203D980235B029846C4441D
:10124000494679435643030C2D042D0C89196344F8
:1012500000044019C918C0BCB946B046F0BDC0462C
:10126000F0B557464E464546DE46E0B504000D0053
:101270009246994683B08B4230D82DD0494650468D
:1012800000F0D8F829000600200000F0D3F8331A47
:101290009846203B34D49B4653465A469340424698
:1012A0001F00534693401E00AF423BD8AF4200D1CF
:1012B00079E05B46A41BBD41002B00DA76E00022FA
:1012C00000230092019301235A4693400193012386
:1012D00042469340009329E08242CFD90022002366
:1012E000009201930C9B002B01D01C605D60009864
:1012F000019903B0F0BCBB46B246A946A046F0BD7A
:1013000042469B4620239B1A5246DA404146130030
:101310004A468A40170042461F43534693401E00E8
:10132000AF42C3D900220023009201934346002B11
:10133000D8D0FB0772081A4346467B080EE0AB4242
:1013400001D1A2420CD8A41A9D41012024196D415B
:101350000021013E24184D41002E06D0AB42EED9AB
:10136000013E24196D41002EF8D1009801995B4689
:1013700000196941002B24DB2B005A464446D34018
:101380002A00E2401C005B461500002B2ADB2600E9
:101390009E40330026004746BE403200801A9941E5
:1013A000009001919EE7A342BCD882E742462023E9
:1013B00000219B1A0022009101920122DA40019241
:1013C00085E7424620239B1A2A0046469A4023007E
:1013D000F340444613432A00E2401C005B461500DC
:1013E000002BD4DA42462F002023260097409B1A78
:1013F000DE403B003343CDE71C2101231B04984210
:1014000001D3000C10391B0A984201D3000A083995
:101410001B09984201D30009043902A2105C40184C
:101420007047C046040302020101010100000000F0
:101430000000000010B5002903D1FFF7DDFF2030C8
:1014400002E00800FFF7D8FF10BDC046F8B5C0465F
:10145000F8BC08BC9E467047F8B5C046F8BC08BC4E
:101460009E4670470000000001B40248844601BC5B
:10147000604700BF610200080000204000002440D7
:101480000000004000000000000023400000304049
:101490000000314000009F4000002240000010404A
:1014A00000009D402020202020101010101D1D80C5
:1014B00017007500FF030602060036041020000026
:1014C0007FC0000000040000000000000019324B43
:1014D000647D0000000000804000080B1000000048
:1014E0000000FF012002001F00800004FF08101808
:1014F000001000140018001C4044484C500000002C
:1015000008100000080000000400000004100000A3
:10151000001200000421000000210000001600005D
:1015200040114002C41300138013A013401388130A
:10153000A81320001C0000000300000001000000B0
:10154000010000000000000005036000040000002E
:10155000010000000000000001000000060460001F
:1015600008000000A8050008D50E001000000000CB
:10157000F0FCFF7F010000000000001000000008E8
:10158000800000009815001080000008F80200009C
:10159000B00300081802000000093D0000093D00EA
:1015A00000127A0000093D00A00F000004000000B6
:1015B000F5000010C900001080B230B5C40000284A
:1015C00020D0114B18680300BA331A8807235343FD
:1015D000026A9A1811680029FCDA3E210B4A062596
:1015E00011600B4A0B491160A3210B4AC9005550E9
:1015F0000A495450006A54581B1800205860535828
:10160000002BFCDA30BDC046CC03000804012640A4
:10161000080126401E1F0000000026401C05000097
:1016200010B54378FF2B11D100F002F9040003201C
:1016300000F0E6F80121C3685B681A680A431A6083
:101640001A680A42FCD1200000F01AF910BDF7B563
:1016500007000020019100F0D3F83E4C05002368FC
:101660001A005033BC3216681B788619002B59D0EB
:1016700000F0EEF8009003281AD000F0D9F8364AAE
:10168000364B0400D358002B3CDA01212800344AA1
:1016900000F0BEF8002835D10198FFF78DFF002F2C
:1016A0003ED03368002BFCDB00F0DAF805002AE0BE
:1016B000062000F0A5F82368BC331B68C018036837
:1016C000002B02DA274D2800FEBD002000F0B8F8FC
:1016D000254B9842F6D00023244A190001201268B5
:1016E00000F09EF8041EEDD1002000F0A9F81E4A7B
:1016F0001F4B904203D09C42E4D00134F4E79C425B
:10170000BBD1DFE7174D009B032B05D10121002042
:1017100000F0AEF80028F9D1200000F0B1F8D2E7CF
:10172000144DF0E700F084F8012104000C4A280071
:1017300000F06EF8002808D1002F08D03368002B85
:10174000FCDB00F08DF80500E6E7064DE4E7094D07
:10175000E2E7C046CC030008000026401C0500005C
:10176000D00300080500520001018800E0030008D2
:10177000F049020001005000184BF7B51B681849EA
:101780005A6804230C6923430B61012824D030BF1D
:101790001300FC331B69002B1DD1A324114B1248ED
:1017A0001249E40007681E590D680195104D056047
:1017B00006251D513E240C600E4C3E351D511D5911
:1017C000002DFCDA0C4CFC321461A322D20007601D
:1017D0009E50019B0B60F7BD20BFD9E7CC030008EA
:1017E00000ED00E0000026400801264004012640EC
:1017F0001E1F00001C050000AAAAAAAA00000000E3
:1018000001B40248844601BC604700BFC501001016
:1018100001B40248844601BC604700BFDD020010ED
:1018200001B40248844601BC604700BFF1030010C8
:1018300001B40248844601BC604700BF2B01001080
:1018400001B40248844601BC604700BF590600103D
:1018500001B40248844601BC604700BF0510001077
:1018600001B40248844601BC604700BF7902001001
:1018700001B40248844601BC604700BFD90500108E
:1018800001B40248844601BC604700BF3301001028
:101890000000000000000000000000000000000048
:0818A000000000000000000040
:1020000000F80F08252300100D0000009923001090
:10201000992300109923001099230010000000005C
:1020200000000000000000000000000095230010E8
:102030009523001000000000952300109523001048
:102040009523001095230010952300109523001070
:102050009523001095230010952300109523001060
:102060009523001095230010952300109523001050
:102070009523001095230010952300109523001040
:1022E00010B5054C237833B9044B13B10448AFF350
:1022F00000800123237010BD2C280008000000007E
:10230000CC78001008B5034B1BB103490348AFF369
:10231000008008BD0000000030280008CC780010C4
:1023200070477047FFF7FCFF72B6144C144DAC4277
:1023300009DA21686268A368043BA2BFC858D0507C
:10234000FAE70C34F3E70F490F4A00209142BCBF73
:1023500041F8040BFAE70D480D490860BFF34F8FB1
:1023600000F084F800F068F8FFF7DBFF04F024FCCD
:1023700000F0A5FA04F00CFCFEE70000D87800108D
:10238000F07800102C280008882B00080020000896
:1023900008ED00E0FEE7FEE700B5042071460842C4
:1023A00002D0EFF3098002E0EFF30880043003F07D
:1023B00041FCFEE708B5012002F012FA08BD7047A3
:1023C00010B5002003F024FB00B910BD0446124BE9
:1023D000186002F027FD0130B4FBF0F00F4B1860DD
:1023E00002F038FD0130B4FBF0F40D4B1C60013CF1
:1023F0000C4BA3FB04239B0C01330B4A13700B4BB8
:10240000A3FB0434A4090134094B1C60002003F031
:10241000FFFA084B1860D8E7E8220008EC22000811
:10242000E022000883DE1B43F4220008D34D621033
:10243000F0220008E422000808B5094801F008FE6F
:10244000FFF7BDFFFFF7BCFF00221146032002F09B
:1024500023FA044802F070F8034802F0C5F808BDFA
:102460000C78001048280008286C0010EFF3108149
:1024700072B6074AD2F8883043F47003C2F8883045
:10248000BFF34F8FBFF36F8F81F31088704700BF8A
:1024900000ED00E008B500F0CBF800F00FF800F018
:1024A000BDF800F047F800F04DF808BD08B500F0A1
:1024B000BDF900F02DF800F05FF808BD08B50F2158
:1024C000012002F0B5FB00220F21012002F08AFA60
:1024D0000F21012002F06AFB0021084602F0A8FB50
:1024E00000221146104602F07DFA0021084602F053
:1024F0005DFB0721002002F09BFB00220721104614
:1025000002F070FA0721002002F050FB08BD000025
:1025100008B5054800F01CFC044800F019FC04480C
:1025200000F016FC08BD00BF646C00105C6C00106D
:10253000606C001008B5002211462F2002F0FAFA54
:1025400008BD000010B5084C084A0421204601F0DF
:1025500009FF074A0621204601F004FF054A07212A
:10256000204601F0FFFE10BD00033140046D001055
:10257000CC6C0010946C001008B5184800F0E8FB13
:10258000174800F0E5FB174800F0E2FB164800F0A2
:10259000DFFB164800F0DCFB154800F0D9FB1548BE
:1025A00000F0D6FB144800F0D3FB144800F0D0FB39
:1025B000134800F0CDFB134800F0CAFB124800F0AE
:1025C000C7FB124800F0C4FB114800F0C1FB1148E2
:1025D00000F0BEFB104800F0BBFB08BD3C6D0010D6
:1025E000406D00107C6C0010386D0010006D001004
:1025F000C86C0010686C00106C6C0010706C0010DF
:10260000746C0010786C0010806C0010846C0010EA
:10261000886C00108C6C0010906C0010024B332200
:102620009A601A61704700BF00203040FEE700004A
:1026300030B583B007220021322002F07BFA9621C8
:10264000002003F049FB03F0D9FAC0B96F4BD3F86F
:10265000004F04F03F0403F0C1FA30B1012003F051
:10266000B3FA6B4B9B6C002B26DB684BC3F8004F17
:1026700002F0D6FC02F0CAFC012002F0E5FC0120C9
:1026800003F03AFE03F0E0FD03F0BAFE03F0A4FE0F
:1026900002F0C2FD0021084602F060FC002002F0BA
:1026A000CBFB012002F0B0FB002002F03DFB594BB8
:1026B0001B6893F83F4006E00620FFF7B7FF20466F
:1026C00002F0E6FE013C002CF9D10021012002F0CD
:1026D000EFFC002002F030FC00287BD000210846EF
:1026E00002F0E6FC0021084602F006FC4A4D0024F8
:1026F0000094234622462146284601F077FD0094A7
:10270000234622460121284601F070FD434802F08D
:102710005FFC00286AD1012002F066FB002002F075
:102720008BFB002002F070FB002002F0FDFA00217C
:10273000012002F0BDFC0021084602F0B9FC002196
:10274000022002F0B5FC0021032002F0B1FC0021C0
:10275000042002F0ADFC0021052002F0A9FC304865
:1027600002F074FD002844D12E4802F01FFE00281C
:1027700042D10021084602F0BFFB0021084602F0CA
:10278000EDFB2949012002F0A9FEC0BB42F2107105
:10279000012002F031FFA8BB02F01CFB002002F078
:1027A000EDFA002002F000FB02F00AFB00210846CF
:1027B00003F086FE012002F0D1FA02F027FC01208E
:1027C00002F042FC6421002003F086FAFFF7F8FDD6
:1027D00003B030BD02F09AFC40F2111398427FF42E
:1027E0007DAF0121002002F087FB77E70520FFF78E
:1027F0001DFF0420FFF71AFF0420FFF717FF032037
:10280000FFF714FF0320FFF711FF00BF00F0274080
:10281000000027401C2B00080000314040420F0000
:10282000446D0010400D0300706D001008B509489C
:1028300000F08EFA084800F08BFA084800F088FA99
:10284000074800F085FA074800F082FA064800F0D1
:102850007FFA08BD586D00105C6D0010606D0010AF
:10286000646D0010686D00106C6D001008B50448B0
:1028700003F0B4FB08B1002008BD0248FCE700BF2C
:10288000F82200080000020610B500F05FFA0446C6
:1028900038B154B1FFF7FEFDFFF708FE5CB12046EA
:1028A00010BD01F039F80446F3E740F6E44100209A
:1028B00001F07AF8EEE7FFF7D9FF0446EFE710B52D
:1028C00092B0FFF7E1FF00B101BE62B600230393AF
:1028D0000293019301220092FF220D2104A800F02F
:1028E0008FFD04A800F096FE10E042F2107207EE91
:1028F000904AF8EEE77A17EE901A04A800F042FE2C
:102900000A2001F05BF8013C002CEEDA6424FBE7BE
:102910000230800803D001300238FCD100BF00BF74
:102920007047EFF3108072B6704780F310887047DD
:1029300001BE0148704700BF02020204024B0B6057
:1029400009231360002070475823000808B5407819
:1029500003F05EF808BD000038B5054614468A420B
:1029600094BF00230123834209D080F001038A42EF
:102970002CBF002101218B4201D04DB138BD03F0A5
:102980005DFC0549A1FB0431890C03F0A5F9F4E7CE
:10299000FFF716FDF2E700BF83DE1B432DE9F04190
:1029A00004460A78A2F10D03DBB2012B04D90F2AE9
:1029B0002FD14E78013600E04E78002002F0EEFA7A
:1029C0000746002002F0B8FA03F002F820FA07F8F0
:1029D000304602F0FDFF20FA07F763786BB1F1B2E1
:1029E000607802F089FA054663789BB958B93A468F
:1029F00041460020FFF7B0FF0CE03A464146012077
:102A0000FFF7AAFFEBE7424639460020FFF7A4FF95
:102A100000E0024D2846BDE8F08100BF010202043B
:102A2000F8B505460139072935D8DFE801F0042655
:102A3000340634343424002600E00226002002F05C
:102A4000ADFA0746002002F077FA02F0C1FF20FA43
:102A500007F720FA06F46B788BB13146687802F0FC
:102A60007DFA06466B78BBB978B922463946002014
:102A7000FFF772FF10E00326E0E70126DEE72246BB
:102A800039460120FFF768FFE7E73A462146002074
:102A9000FFF762FF00E0014E3046F8BD000202047D
:102AA00008B519B1407802F0E1F908BD407802F0AC
:102AB00007FAFAE708B5407802F0F0F908BD08B562
:102AC0000378417803F0030002F0CBFF08BD08B59E
:102AD0000378417803F0030002F0DCF808BD000041
:102AE00000487047E07600102DE9F04182B00746BB
:102AF0000D469046084601F013FAC6B2002401E0E4
:102B00000134E4B2B44213D205238DF804308DF8B9
:102B100005508DF8064001A800F01AF90346002878
:102B2000EED13D707C700122BA70C7F8048000E0DD
:102B3000024B184602B0BDE8F08100BF020D02044E
:102B400030B583B00C46054678B184B105238DF8C5
:102B5000043023788DF8053063788DF8063001A8AD
:102B600000F0F6F828B103B030BD01BEEDE701BEBC
:102B7000ECE7226863682A606B600123AB70F2E7C0
:102B800008B5034648B11A78122A08D0032A0AD990
:102B90005A6812681846904708BD01BEF3E7184608
:102BA000FFF788FFF8E71846FFF791FFF4E710B545
:102BB000044668B12046FFF7E3FF98B12378122B53
:102BC00008D0032B0AD963689B68204698470AE01F
:102BD00001BEEFE72046FFF7B9FE04E02046FFF70D
:102BE0006EFF00E0002010BD10B582B0044690B129
:102BF000A37803B901BE05238DF8043023788DF83E
:102C0000053063788DF8063001A800F0E5F8002360
:102C1000A37002B010BD01BEEAE7000070B5042841
:102C20000DD00D46114602463C4C34F810E0441CD1
:102C30001D2C07D8E4B2394E36F8144004E00D25B7
:102C40000520F0E740F231144FF0010C0CFA02FCC1
:102C5000334A0CEA02023AB9AE44A3F800E01B88FA
:102C6000A34258D2002070BDC21E182A32D8DFE815
:102C700002F00D313431310F25312931313131310B
:102C80002B312D3131313131312F2700254A00E0F0
:102C9000254A1C80002AE2D00338182836D8DFE8FD
:102CA00000F01E353835351E2F3531353535353583
:102CB0001E351E353535353535331E001B4AE8E7E0
:102CC0001B4AE6E71B4AE4E71B4AE2E71B4AE0E748
:102CD0001B4ADEE701BE0022DBE71A4AD9E70126DC
:102CE000B542BCD232F81500704411FA80F1198057
:102CF000691CB142B3DA32F811407444A4B2AEE7B1
:102D00000226EDE71026EBE70226E9E701BE0026E2
:102D1000E6E71A26E4E70C48A5E700BF9077001025
:102D2000280B0A0C20770010587700105C770010F1
:102D30008C77001060770010807700108477001087
:102D40008877001024770010000D020400207047DF
:102D5000F0B583B004460027FFF7E3FD06460DF10A
:102D60000603A27861782078FFF758FF054668B916
:102D7000BDF80630C3F3C70203F007031449895CAA
:102D8000012202FA03F3194218BF174605B9EFB939
:102D90002DB13046FFF7C9FD284603B0F0BD0DF157
:102DA0000603A27861782078FFF738FF05460028EF
:102DB000EFD1BDF80630C3F3C70103F007030448A1
:102DC00001229A40435C13434354E2E7014DE0E79C
:102DD000D0290008010D020430B583B00446FFF786
:102DE000A0FD05460DF10603A27861782078FFF773
:102DF00015FF024660B9BDF80630C3F3C70003F003
:102E00000703074C01219940235C23EA0103235463
:102E100002B101BE2846FFF788FD03B030BD00BFF8
:102E2000D029000802460023184603B1704702B1BA
:102E300018460133DBB2F8E710B50446FFF7F2FF9E
:102E4000204610BD002001E00130C0B2102805D896
:102E5000044B1B5C002BF7D040B270474FF0FF30A3
:102E6000704700BFF470001038B504460D46FFF7F8
:102E7000E9FF114B1B5D83B1104B1A689368B2F8E0
:102E800070100B44201A1030B2F8721001FB00F0E1
:102E900000EB8501C858C0B238BD084B1A6893686A
:102EA000B2F870100B44B2F8720004FB00F000EBB3
:102EB0008500C058EFE700BFF47000101C2B00081D
:102EC0002DE9F84304461E469DF820809DF82470A5
:102ED000224B1B5CC3B1411ACCB22046FFF7ACFFBA
:102EE00046EA00262046FFF79DFF46EA004040F0F4
:102EF000804040F4805027B14246002103F038FC66
:102F000023E003F083FC20E01546FFF795FF4FEA2E
:102F1000002945EA00252046FFF784FF45EA0045E1
:102F200049EA060949EA004949F080417FB90C4B5A
:102F30001A689368B2F870100B44B2F8720000FB84
:102F400004F404EB86040020E050BDE8F883434617
:102F50000022284603F0B0FBF7E700BFF470001032
:102F60001C2B00082DE9F04782B00C469046C0F3B8
:102F7000470600F00107FFF765FF8146244B1D5D02
:102F80001B57002B04DB234B13F804A0002416E08E
:102F900005F07F0555FA80F5EDB2F4E7B8F1010FC1
:102FA00014BF00230123019300975346E2B25FFA56
:102FB00089F12846FFF784FF22E00134A4B22A46B3
:102FC000154B33F81530A34219D9144B53F825305B
:102FD0001B5DB342F1D1124B9B5C1BB11FFA8AF30C
:102FE000A34210D1B8F1020F04D051462846FFF792
:102FF0003BFF50B9B8F1000FD0D1002000E00948E4
:1030000002B0BDE8F0870748FAE70748F8E700BFD5
:1030100088700010007600106C76001014230008F1
:10302000F4700010010C0204000C020408B5022226
:10303000FFF798FF08BD000070B582B00D46837899
:10304000772B16D8DA08134909688E6906EBC21681
:10305000C27803F00704009201232A462146304635
:1030600001F0C4F80A2D08D00B2D0CD0002002B0BE
:1030700070BD084A12689669EAE701222146304687
:1030800001F0EEF8F2E700222146304601F0E8F8C0
:10309000ECE700BF1C2B000810B582B00146772872
:1030A00010D8C308094A1268906900EBC3100024C5
:1030B00000940123082201F0070101F097F820464F
:1030C00002B010BD014B1B689869F0E71C2B00088B
:1030D00001280BD002280ED008B1094870471AB158
:1030E00001230B60002070470023FAE782F0010201
:1030F0000A600020704702230B600020704700BF69
:1031000000130204F8B5037D002B47D004460D469A
:1031100090F836300BB1002541E002F089FC0646FC
:10312000627A204B03EB02139868DFF87CE00027FB
:10313000A0F1200CC0F120010EFA0CFC2EFA01F1D6
:103140002A463B460EFA00F04CEA010103F09EFBD2
:1031500002460B463546864277EB010101D23246E4
:103160003B46A81843F10001013841F1FF3103F05B
:103170008DFB0246B0F5803F01D94FF48032207BB1
:10318000013A617B00F0030001F02CFC054630B9E8
:1031900004F10C00FFF70BFDA06100E000252846BC
:1031A000F8BD00BFE877001040420F0000000000AB
:1031B000F8B504460E46417A314B03EB01131879FA
:1031C000A37A1844C5B2B2B104F10C03D2E90001EC
:1031D00083E80300217B627B01F00301284601F0B4
:1031E000A9FC0746002841D104F10C00FFF7DFFCE1
:1031F000A0613846F8BD01231A4604F1080104F124
:103200000C0000F0ABFE074610B1002FF1D1EBE748
:103210000123237502F00CFC96B117A3D3E9002318
:10322000A6FB000103F032FB421C21D0207B013AB7
:10323000617B00F0030001F0D5FB18B1114FD8E716
:103240000122F3E7207B617B00F0030001F0AEFC7C
:1032500008B10C4FCDE7217B627B01F003012846CA
:1032600001F068FC0028D0D0064FC2E7054FC0E748
:10327000044FBEE7AFF30080C0FD320F0000000036
:10328000E877001001130204F8B504460E4617460D
:103290000A46817A406803F037F9054617B1B368EA
:1032A000022B02D04DB12846F8BD6368A27A03EB29
:1032B00082130622C3F82821F4E7204600F038FCE8
:1032C000F368003B18BF012384F836306268A17AA6
:1032D00001238B409360E6E700296CD02DE9F04193
:1032E00082B0044615460E46427A374B03EB021372
:1032F0009A6801239340013B8B425ED390F83400DF
:1033000094F835806368A27A03EB82130022C3F835
:103310000C216368A27A4F1E03EB8213C3F8147169
:10332000FF282AD1B8F1FF0F33D101226368A17AB7
:1033300003EB8110D0F8280112283AD003EB81105A
:10334000D0F82801062832D000200AB100B9751B38
:10335000B54200D22F4603EB8113C3F80C716368AA
:10336000A27A03EB8211D1F808118F4227D803EB20
:1033700082130020C3F8080122E00023009304F127
:1033800008036222114900F005FD0028CAD100227D
:10339000CCE70023009304F1080362220C49404665
:1033A00000F0F8FC08B10122C0E70022BEE70120CE
:1033B000CBE70120C9E707487047064800E0002036
:1033C00002B0BDE8F08100BFE8770010006F001088
:1033D000786D00100013020410B5044628B123785C
:1033E0002BB1204600F066FC10BD01BEF7E704F1EA
:1033F000340000F022FD04F1350000F01EFDF0E77E
:103400002DE9F0479EB00E4691469A469DF8A08061
:10341000054600287ED038220021284603F0F0FB24
:103420001E232B72FF2385F8343085F83530622354
:103430004F4A1A21304600F0DAFC044600286BD0CF
:103440000027002C71D01A232B7223786B726278BC
:10345000AA721B01474AD3586B600621204600F030
:10346000F7FC04460CB985F83460B4B9B9F1FF0F24
:1034700013D0002F5BD00023009305F108036222D4
:103480003B49484600F086FC002861D0062100F048
:10349000DFFC044608B985F83590002C51D0002394
:1034A0001D93002C56D0002C2FD1AB69279A02FB1C
:1034B00003F3314AA2FB03234FEA9349C3F3874640
:1034C0006822002103A803F09BFB002E49D10423AE
:1034D00003931D9B05935FFA89F306939DF898303B
:1034E00083F001030793B8F1000F00D001240F947B
:1034F00010940223119303231A9301231B933A463A
:1035000003A92846FFF7C0FE044664BB20461EB050
:10351000BDE8F08701BE7EE76223184A1A213046D3
:1035200000F065FC044601278BE7154C9AE7002361
:10353000009305F1080362221049484600F02AFC76
:10354000A2E7299A27992846FFF732FE0446A6E704
:103550000B4CA4E73A461DA95046FFF7B9FD0446B7
:10356000A1E70523B4E72846FFF736FFCEE700BF03
:10357000786D0010E877001083DE1B43006F0010A9
:103580000013020438B52DED028B08EE101A144614
:103590000546C8B1B5EEC08AF1EE10FA2DD4DFEDC4
:1035A0001A7AB4EEE78AF1EE10FA28DC4CB304F58F
:1035B000742101F23F21B1FBF4F12846FFF7A2FD8F
:1035C00020B1BDEC028B38BD01BEE3E7A96901EB78
:1035D0005401B1FBF4F1DFED0D7A28EE278A07EEF6
:1035E000901AF8EE677A27EE888AFCEEC87A17EE12
:1035F000902A2846FFF770FEE3E70548E1E7044814
:10360000DFE70348DDE700BF0000C8420AD7233CDC
:103610000013020410B5044668B100F083FA60B9E3
:103620006168A27A012303FA02F28A606268A17AD1
:103630008B40136110BD01BEEFE70148FAE700BF00
:10364000031A02042DE9F0410446884616461F4637
:1036500004E0012288F80020E2B1E46840F28975B4
:10366000AC4217D02568002DF7D094F804C036EA94
:103670000C03F2D1637937EA0303EED0A26839462E
:103680003046A8470028E4D1012F01D00122E1E70C
:103690000022DFE72046BDE8F08170B504460D4604
:1036A000164600E0E468AC420FD02368002BF9D046
:1036B000217936EA0102F5D1627912F0020FF1D1D7
:1036C000A268022130469847ECE770BD38B5054640
:1036D0000C46FFF726F9E36813B1FFF726F938BD6A
:1036E0002B68E3602C60F8E738B504460D46FFF719
:1036F00018F901E003F10C04236840F28972934247
:1037000005D0AB42F6D1EB6823600023EB60FFF7F6
:103710000CF938BD2DE9F04182B00D4600F0F4FB04
:10372000044601238DF80730022808D0082806D067
:10373000102804D01A4B1E681A4B1F6803E0184B60
:103740001F68184B1E6823462A460DF107013846AC
:10375000FFF778FF80469DF8073063B930469DF843
:1037600007300BB9012C0ED09DF80730B3B1002003
:1037700002B0BDE8F08123462A460DF1070130462C
:10378000FFF760FFEBE72A4601463046FFF785FF6B
:103790002A4641463846FFF780FFE5E70248E7E75B
:1037A000802300087C230008FF00420038B50C4647
:1037B00020212046FFF7AEFF0546042C01D0284605
:1037C00038BD002002F024F90349A1FB0031890C27
:1037D000012002F081FAF2E783DE1B4338B50C4684
:1037E00010212046FFF796FF0546082C01D02846F9
:1037F00038BD002002F00CF90349A1FB0031890C0F
:10380000002002F069FAF2E783DE1B4308B50846A0
:103810000821FFF77FFF08BD10B50446FFF77AFFC8
:10382000042C02D0082C17D010BD4FF0E0231B69E8
:1038300013F0010F04D00E4B1B7813B1012300E0ED
:1038400000230C4A1370002BEED04FF0E0221369D6
:1038500023F001031361E7E7064B1B78002BE3D04D
:103860004FF0E022136943F001031361DCE700BF6E
:10387000FA290008942A000808B50846012902D14F
:10388000044B1B881BB90221FFF7C6FF08BD024885
:10389000FCE700BFF8290008FF00420008B5084611
:1038A0000121FFF7B9FF08BD38B584468E4615469D
:1038B0000C4C0FCCCCF80000CCF80410CCF808204D
:1038C000CCF80C3007CCCCF81000CCF81410CCF8A5
:1038D0001820CCF800508CF804E0604602F07EFB23
:1038E00038BD00BFCC77001008B5014618B10348B9
:1038F000FFF7ECFE08BD01BEF9E700BF802300081A
:1039000008B5014618B10348FFF7EEFE08BD01BE39
:10391000F9E700BF8023000808B502F055FD38B96B
:10392000164A00211648FFF7BFFF20B9154808BD09
:1039300002F09EFBF4E7144A01211448FFF7B4FF9C
:1039400008B91048F3E7124A02211248FFF7ACFF0A
:1039500008B90C48EBE7104A03211048FFF7A4FF11
:1039600008B90848E3E70E4A04210E48FFF79CFF18
:1039700008B10020DBE70348D9E700BF9D380010FD
:10398000742A0008011A020479380010042A000879
:103990000D380010202A0008DD370010582A0008D2
:1039A000AD3700103C2A0008024600B101BE024BB0
:1039B00043F82210704700BF902A000808B502F0B3
:1039C000E7F8002008BD000000231F2B06D8054A99
:1039D00052F8232022B90133DBB2F6E7002070470A
:1039E00001207047982A000870B40139072900F2B5
:1039F0009080DFE801F085048E2F8E8E8E5E464B20
:103A000000221A70012028E0002353700131C9B24E
:103A1000424B03EB00131B7B8B4211D93F4B03EB53
:103A200000135B7B0B443E4A52F82320002AEDD062
:103A300001238B402E681E42E6D001235370E5E738
:103A40000134E4B2012C07D820462301334AD5586B
:103A50000021DDE70024F5E7012070BC7047013349
:103A6000DBB22E4A02EB0112127B9A4210D92B4A8A
:103A700002EB0112527B1A44294D55F82220002AEC
:103A8000EDD05278002AEAD001229A401043E6E7AE
:103A900000B1A0600CF1010C5FFA8CFCBCF1010FCD
:103AA0000AD861464FEA0C131C4AD4580023184622
:103AB000D7E74FF0000CF1E7174B00221A700120F6
:103AC000CBE70132D2B2154B03EB00131B7B9342C1
:103AD00013D9124B03EB00135B7B1344104951F8CD
:103AE0002330002BEDD059689B7A043301EB83130C
:103AF0005B68002BE5DA0020AFE70130C0B200E0E0
:103B00000020012801D80022DDE70120024B1870B7
:103B1000A3E701BE0120A0E7182B0008E8770010FA
:103B2000982A0008014B1878704700BF182B00082E
:103B300010B50446002306E003F11402002124F826
:103B400012100133DBB2042BF6D9FFF73DFF50B161
:103B5000627A074B03EB02135B7BA27A1344054A9C
:103B600042F8234010BD0448FFF7BEFEF0E700BF57
:103B7000E8770010982A00088423000810B947311C
:103B8000C8B27047012800D001BE5531C8B2704795
:103B900070B504460E461546407AA27A042D00F20E
:103BA0008480DFE805F003263D546B00636803EB77
:103BB000821CDCF82031C3F30343DCF8201121F42C
:103BC0007021CCF82011616801EB8212D2F8241127
:103BD00041F44071C2F82411023BD9B2FFF7CEFF85
:103BE00001463046FFF722FA10B9143524F81500C3
:103BF00070BD636803EB821CDCF82031C3F3033330
:103C0000DCF8201121F47041CCF82011616801EB3F
:103C10008212D2F8241141F0C001C2F82411DBE76E
:103C2000636803EB821CDCF82031C3F30323DCF868
:103C3000201121F47061CCF82011616801EB82122F
:103C4000D2F8241141F03001C2F82411C4E76368AE
:103C500003EB821CDCF82031C3F30313DCF82011E2
:103C600021F0F001CCF82011616801EB8212D2F84A
:103C7000241141F00C01C2F82411ADE7636803EB95
:103C8000821CDCF8203103F00F03DCF8201121F056
:103C90000F01CCF82011616801EB8212D2F82411D7
:103CA00041F00301C2F8241196E70148A0E700BFE4
:103CB0000022020438B5054630B36A7A314B03EB73
:103CC00002139B7BA97A5A1802F01F0153090122A3
:103CD0008A4020332C4941F82320BFF34F8FBFF394
:103CE0006F8F6B68002B35D06A7A264B03EB02137B
:103CF0005B7BAA7A1344254A002142F82310FFF780
:103D000063FE18B1002307E001BED6E72048FFF7A5
:103D1000F7FDF7E70133DBB2042BFBD9002401E008
:103D20000134E4B2042C0AD804F1140335F813105A
:103D30000029F5D022462846FFF72AFFF0E76A68F7
:103D4000A97A01238B4053602B7833B100236B6039
:103D50001E232B722B7D2BB938BD05F10800FFF710
:103D60003BF8F3E7287B697B00F0030000F060FF7D
:103D700000B101BE05F10C00FEF736FF00232B75E4
:103D8000EAE700BFE877001000E100E0982A0008A9
:103D90008423000870B59DF81060FF2803D0054605
:103DA0004FF0000C0DE0002020E036B993F802E05F
:103DB0004478A64517D0002400E00124B4B90CF1E2
:103DC000010C944511D24FEA8C0401EB8C0090F861
:103DD00002E0AE45F3D14BB193F801E00C5DA6458E
:103DE000E3D00024EAE70124E8E7002070BD2DE9D4
:103DF000F04383B08046894616461F46002400E003
:103E00000134BC4214D206EB840595F802C0C445C7
:103E1000F6D18DF8049016F824308DF805306B78C3
:103E20008DF8063001A8FEF793FF0028E8D100E0E6
:103E30000025284603B0BDE8F08310B5044600789D
:103E4000FF2800D110BD00F037F8FF232370F9E7F9
:103E500070B584B004460D4683780B228DF800209F
:103E6000DA088DF8012003F007038DF80230009B7B
:103E7000ADF80C301B0C8DF80E30039BADF80830FC
:103E80001B0C8DF80A30029BADF804301B0C8DF82A
:103E9000063001A8FEF75CFF064610B1304604B0BC
:103EA00070BD29462046FFF7C7F806460028F5D022
:103EB00001A8FEF791FFF1E710B584B00446FFF7C3
:103EC000EBF800B101BE0B238DF80030E3088DF84C
:103ED000013004F007048DF80240009BADF80C306F
:103EE0001B0C8DF80E30039BADF808301B0C8DF8C1
:103EF0000A30029BADF804301B0C8DF8063001A887
:103F0000FEF76AFF04B010BD431E072B05D8DFE89B
:103F100003F0060604060404040601BE01207047EF
:103F2000122817D8DFE800F00A180C0E161616161D
:103F300016161616161216101616140008207047BC
:103F40000420704701207047022070470620704708
:103F50000620704701207047102070472DE9F0437C
:103F600083B0044616461F460B4691B119780539B1
:103F7000182943D8DFE801F03A4242424242420F58
:103F8000424242424242420F1C42422A4242424282
:103F9000230001BEEAE7274B93E8030002AB03E9E5
:103FA000030069462046FEF7CBFD03B0BDE8F08371
:103FB000214B93E8030002AB03E90300F1E71F4B39
:103FC00093E8030002AB03E90300EAE75B7833B947
:103FD0001B4B93E8030002AB03E90300E1E7164B38
:103FE00093E8030002AB03E90300DAE701BE1548DA
:103FF000DBE74FF001090EE001BE0EE00025A94607
:104000001148032DD1D8114B13F805804645F0D047
:10401000B9F1000F0CD0002CEED0FEF761FD024686
:1040200041462046FEF760FD0028BED0002FBCD0E0
:104030000135E6E798760010A0760010A87600100B
:10404000B076001002020204020D0204087800108B
:10405000014B1860704700BF1C2B0008B0F1204FC7
:104060003CD018D880283BD007D9B0F5807F3FD00E
:10407000244B984209D024487047102832D0402859
:1040800001D12248704700282ED170474FF4A40078
:1040900070471D4870471E4B98422BD02DD31D4BA7
:1040A00098422CD8B0F1704F12D900F180500138ED
:1040B0000428EED801A353F820F000BF8D40001073
:1040C00093400010ED400010D5400010D940001082
:1040D0000D487047104870471048704700207047DF
:1040E0000F4870470F487047074870470E487047A1
:1040F000044870474FF4A0007047034870470248D7
:10410000C3E700BF06005200FF005200020050004B
:10411000090000A0050000F0020052000300520058
:1041200005005200010050000100520010B5104B74
:104130001B6893F83330012B00D801BE0C4B1C6870
:10414000236AB4F8BA201344D4F8BC20D358002B07
:104150000BDB084B1868FFF781FF636801229A6048
:1041600063689B68002BFBD110BD0348FCE700BFD0
:104170001C2B0008202B00080200500010B5072956
:1041800000D901BE32F01F0300D001BE164B1B68E0
:104190009C69001BC0095B694FEA001C03EB00101F
:1041A000032910D853F80C00C9004FF01F0E0EFA67
:1041B00001FE20EA0E0002F01F0202FA01F10143A3
:1041C00043F80C1010BD04394368C9004FF01F0CB0
:1041D0000CFA01FC23EA0C0302F01F0202FA01F1BF
:1041E00019434160EEE700BF1C2B0008F8B50746F5
:1041F0000D4614461E469DF81820072900D901BE19
:1042000034F00F0303D1012C01D0092C00D101BEE1
:10421000012E00D901BE32F01F0300D001BE294695
:104220003846FFF7ABFF3B680122AA4023EA0203AE
:1042300006F00106AE401E433E60084B1B6893F833
:104240008110CB59AD000F22AA4023EA020304F0EB
:104250000F04AC401C43CC51F8BD00BF1C2B000820
:10426000072900D901BE012A00D901BE012303FAA2
:1042700001F10AB9416070478160704700B50729B4
:1042800000D901BE32F00F0303D1012A01D0092A5F
:1042900000D101BE89000A4B1B6893F881E05EF8EB
:1042A00000304FF00F0C0CFA01FC23EA0C0302F073
:1042B0000F028A401A434EF800205DF804FB00BF4D
:1042C0001C2B000800B5072900D901BE012A00D91E
:1042D00001BE0A4B1B6893F882E05EF800304FF095
:1042E000010C0CFA01FC23EA0C0302F001028A40E3
:1042F0001A434EF800205DF804FB00BF1C2B000899
:10430000082900D901BE012A00D901BE83694FF0F6
:10431000010C0CFA01FC23EA0C0302F001028A40B2
:104320001A4382617047000000B5082900D901BE18
:10433000032A00D901BE4900094B1B6893F880E0AD
:104340005EF800304FF0030C0CFA01FC23EA0C037A
:1043500002F003028A401A434EF800205DF804FB85
:104360001C2B0008002800F0A280F8B50D4614466A
:104370000646002A00F09D80072900D901BE236867
:10438000012B00D901BE636833F00F0203D1012B6A
:1043900001D0092B00D101BE237A33F01F0300D0D6
:1043A00001BEE368032B00D901BE2369012B00D9AC
:1043B00001BE6369012B00D901BE236A012B00D91C
:1043C00001BE636A012B00D901BEA36A012B00D98B
:1043D00001BEE36A032B00D901BE236B072B00D972
:1043E00001BEE369032B00D901BEA369012B00D9EB
:1043F00001BE0121A9406A0002F1100C032303FA57
:104400000CF319432C4F3B6893F88300835923EA3C
:104410000101A36903F00103AB400B43E26902F021
:10442000030202FA0CF213438351227A29463046E2
:10443000FFF7A4FE626829463046FFF71FFFE268D7
:1044400029463046FFF770FF226929463046FFF7BC
:1044500057FF626929463046FFF734FF3B6893F8FF
:104460008410705820F0FF00236A03F00103626A91
:10447000520002F002021343A26A920002F0040208
:104480001343E26AD20002F018021343226B520176
:10449000D2B21343AA0002F47E72934003437350D6
:1044A000226829463046FFF7DBFE0020F8BD0348AE
:1044B00070470248FAE700BF1C2B000801005A00B1
:1044C000084B1B68D3F8BC301B58002B07DA0B0CC9
:1044D0001B0403B101BE89B241600020704702484D
:1044E000704700BF1C2B000801008A000368002BE6
:1044F00008DAC2600B0C1B0403B101BE89B28160F3
:10450000002070470048704701008A000A4651B1F8
:10451000074B1B68D3F8BC301B58002B05DAC36867
:1045200013600020704701BEF2E70248704700BFE9
:104530001C2B000801008A00034B1B6803B1704765
:10454000014B1860FBE700BF442B0008F0B4049D4A
:10455000234C2468002C40D0214C27682C2400FBDD
:1045600004F43819DEB23E51C3F3072444601B0C37
:1045700083601C4B1B6893F833309E4200D301BE0E
:10458000184B1B681C6AB3F8BA7007FB0644046139
:10459000446893F834309C4200D301BE114B1B6831
:1045A0001B6A803403EB441343618468260C360491
:1045B00006B101BE260C360406B101BE1FFA84FC0A
:1045C0004CEA04449C60C26101620023836115B11E
:1045D000B5F900308381F0BC704701BEBCE700BF75
:1045E000442B00081C2B000830B58FB00023ADF819
:1045F00030300D930446002847D0A369072B00D91B
:1046000001BEE36A002B42D0236B002B41D00DF199
:104610001C0C04F1140EBEE80F00ACE80F00DEF82D
:104620000030CCF800300DF1080CA646BEE80F00B3
:10463000ACE80F00DEF80030CCF80030079B1733F1
:10464000ADF83030089B0D930CAD00950B9BA26A22
:10465000E16A0A98FFF77AFF00210091069B0A465B
:104660000598FFF773FF216B284601F05DFABDF94D
:104670003030002B07DB03F01F015B0901228A4069
:10468000054941F823200FB030BD01BEB5E701BE9A
:10469000BAE701BEBBE700BF00E100E070B5154618
:1046A000002A39D0214A1268002A37D01F4A1268DE
:1046B0002C2404FB002C04FB01214A681C480068E0
:1046C00090F834E0B2FBFEF00EFB1022012404FA55
:1046D00002F21204DCF80400B0FBFEF60EFB16003A
:1046E0008440DCF81060DEB18869D8B93668002EE5
:1046F0001ADA2E882E6032432A60DCF81020D5604A
:1047000001228A614B62DCF81020230C1B0403B1E8
:1047100001BEA4B2946070BD01BEC3E701BEC5E78F
:104720000448F8E70448F6E70348F4E7442B000898
:104730001C2B000804028A0007028A0070B582B0B0
:1047400000230193044628B323692BB363692BB379
:10475000236A2BB36369DD682A0C0BD02A0C120480
:104760001A601B6820691D4B1B68D3F8BC301B58AE
:10477000002B17DBADB24DB163691D601B68636A26
:104780003BB39847002363620023A36163691B68FE
:1047900002B070BD01BED7E701BED7E701BED7E7C3
:1047A00001BED7E701A9FFF7B1FE60B90198036820
:1047B0001E0CDBB2E2699A4206D9226A52F8233013
:1047C00013B1984700E0002631462069FFF778FED4
:1047D000D0E7A36A002BD7D09847D5E71C2B000859
:1047E00008B5064B1B683BB1044B1B682C2202FB2F
:1047F0000030FFF7A3FF08BD01BEF5E7442B00081A
:10480000214B1B6893F83330834238D910B50C46DE
:10481000002936D00B6813F01F0301D01B4810BDD0
:10482000194A126892F83320904200D301BE164A0A
:1048300011680A6AB1F8BA1001FB0020144A10602E
:1048400004E06268002142F8231001332268B3EBD0
:10485000521FF6D30021FFF733FE224600210C4BF6
:104860001868FFF743FE08B10A48D8E70021084B53
:104870001868FFF725FE0028D1D00648CFE7034887
:1048800070470248CBE700BF1C2B000803018A00D9
:10489000482B000801018A0010B50B4614461AB1D6
:1048A000E4B1ABB90E4810BD0029F9D10D4A126828
:1048B00092F83320904200D301BE0A4A11680A6A76
:1048C000B1F8BA1001FB0020074A10601846EAE769
:1048D00006490B604C60FFF793FFE4E70048E2E70E
:1048E00003018A001C2B0008482B00084027000801
:1048F0002DE9F0411B4B1B687BB30C46DB681A6843
:1049000082422CD9450900F01F00012202FA00F66C
:10491000D3F8048079B10027124B18680368002B84
:1049200015DA58F82520324209D022EA060248F862
:104930002520002504E0FDF7F4FF0746ECE70A4DCB
:104940000021FFF7BDFD24B12846BDE8F081074DE9
:10495000F9E73846FDF7E9FFF6E7034DF4E7044DC4
:10496000F2E700BF482B000802018800030188001D
:1049700004018A000C4B1B6883B1DB681A68824211
:104980000ED9410900F01F00012202FA00F05B6815
:1049900053F82130034205D004487047044870475B
:1049A0000448704704487047482B000801018800FC
:1049B0000201880004018A0000018800084B1B687E
:1049C0009B6CC34013F0010F00D101BE044B1B6868
:1049D0001B6910308002185800F00F00704700BFAC
:1049E0001C2B0008A0B9072931D8FF2A31D81C4B4D
:1049F00018688368B0F878C09C445CF8210020F403
:104A00007F40120292B202434CF8212000207047EE
:104A1000012801D0134870470F291CD8B2F5803FF8
:104A20001BD20F4B18688368B0F87AC09C445CF8BE
:104A3000210020F47F0020F47F40130223F07F4305
:104A400023F0FF0303434CF8213000207047054852
:104A5000704704487047034870470248704700BFDA
:104A60001C2B000801004A00012800D901BE68B9CA
:104A7000072900D901BE0C4B1A689368B2F8782058
:104A8000134453F82100C0F3072070470F2900D9C1
:104A900001BE054B1A689368B2F87A20134453F8A4
:104AA0002100C0F30F2070471C2B000830B4A0F188
:104AB000020C5FFA8CFCBCF1010F1AD901BE02286E
:104AC0001CD001B101BE1A4C2568A868B5F87E500B
:104AD000284450F82100000A106020688268B0F86D
:104AE0007E00024452F82120C2F3C4021A6030BC96
:104AF0007047002AE2D0002BE1D1DFE7032900D97B
:104B000001BE0B4C2568A868B5F87C50284450F8C5
:104B10002100C0F30F20106020688268B0F87C008C
:104B2000024452F82120C2F3C4021A60DFE700BF3A
:104B30001C2B00081B4B1B6893F842C084452BD9E3
:104B400003292BD809B9072A0ED9012905D0022932
:104B500006D0032907D0144870470F2A04D9F6E776
:104B6000032A01D9F5E7DAB900B593F875E001FA3F
:104B70000EF14FF0030C0CFA0EFC01EA0C0193F855
:104B800074C00CEA02029B68114300F5407043F8C0
:104B9000201000205DF804FB03487047024870476E
:104BA000014870471C2B000801004A00032836D832
:104BB00008B907290ED9012805D0022806D00328F4
:104BC00007D0194870470F2904D9F6E7032901D9FE
:104BD000F5E731BB10B5154B1A6892F877304FF0F6
:104BE000030E0EFA03F392F874C092F876400CFAB2
:104BF00004F4234392F87540A0400EFA04FE00EA44
:104C00000E0018430CEA01019368084340F000408D
:104C1000C3F800049368D3F80034002010BD0248A4
:104C200070470148704700BF01004A001C2B000874
:104C3000032826D808B907290ED9012805D002284B
:104C400006D0032807D0114870470F2904D9F6E78A
:104C5000032901D9F5E7B1B90D4B1A6892F875C06F
:104C600000FA0CF0032303FA0CF3184092F87430A6
:104C700019409368084340F08040C3F800040020C6
:104C80007047024870470148704700BF01004A0062
:104C90001C2B0008034608B9072906D9012B0AD0A6
:104CA000022B0BD0032B0CD001BE032B38D8DFE82E
:104CB00003F00B16212C0F29F7D9F1E70329F4D9BA
:104CC000F0E70029F1D0EFE7164B1A689368B2F8C5
:104CD0007820134453F8210000F001007047114B75
:104CE0001A689368B2F87A20134453F8210000F050
:104CF000010070470B4B1A689368B2F87C2013448C
:104D000053F8210000F001007047064B1A689368C1
:104D1000B2F87E20134453F8210000F001007047E0
:104D2000002070471C2B0008054B1A681168D2F848
:104D300088208B5823F47F4343EA00238B5070472D
:104D40001C2B0008044B1B681A68D3F88830D05815
:104D5000C0F30720704700BF1C2B0008012800D9B2
:104D600001BE054A136823F44073000200F440704A
:104D700018431060704700BF0000274040F2013325
:104D8000984200D901BE074AD2F8043523F4407393
:104D900023F0010320F0FE008005800D0343C2F8DC
:104DA0000435704700002640044AD2F8043523F445
:104DB0007F0343EA0043C2F80435704700002640F1
:104DC000034AD2F8043543F00043C2F80435704773
:104DD00000002640034AD2F8043523F00043C2F80D
:104DE0000435704700002640032800D901BE054A5B
:104DF000D2F8003523F0030300F003001843C2F893
:104E00000005704700002640054B1A681168D2F86B
:104E100088208B5823F07F4343EA00638B50704710
:104E20001C2B0008034B1B681A68D3F88830D05835
:104E3000000E70471C2B0008054B1A681168D2F849
:104E40008C208B5823F47F4343EA00238B50704718
:104E50001C2B0008044B1B681A68D3F88C30D05800
:104E6000C0F30720704700BF1C2B0008084B1B68CD
:104E700093F84030834209D9064AE03052F8203096
:104E800043F0004342F8203000207047024870474A
:104E90001C2B00080000264001004A00064B1B683E
:104EA00093F84030834205D9E030044B53F820009A
:104EB000C00F7047002070471C2B000800002640E0
:104EC000034678B1094A126892F8402082420BD911
:104ED0000749E03351F8232022F0004241F8232013
:104EE0000020704703487047024870471C2B000899
:104EF0000000264001004A000C4B1B6893F840302C
:104F000083420ED90F290ED8094AE03052F82030DA
:104F100023F00F0301F00F01194342F82010002085
:104F20007047044870470348704700BF1C2B0008B7
:104F30000000264001004A00064B1B6893F84030F1
:104F4000834200D801BEE030034B53F8200000F04C
:104F50000F0070471C2B0008000026400C4B1B68FC
:104F600093F8403083420FD903290FD8094AE03023
:104F700052F8203023F03003090101F030011943C9
:104F800042F82010002070470348704702487047DD
:104F90001C2B00080000264001004A00064B1B683D
:104FA00093F84030834200D801BEE030034B53F801
:104FB0002000C0F3011070471C2B000800002640A1
:104FC000024B1869C0F38000704700BF0000274003
:104FD00010B50446094A136843F00803136003E060
:104FE000012000F0F1FD013CFFF7EAFF08B9002CB9
:104FF000F6D10CB1002010BD0148FCE700002740AD
:1050000002004A000020704700207047034AD2F88F
:105010000C3543F00043C2F80C35704700002640C1
:10502000074BD3F8800110F0010007D11A46D3F8DE
:105030000C3523F00043C2F80C3570470148704727
:105040000000264003004A00064BD3F80C3523F03D
:10505000010328B101221343024AC2F80C357047FC
:105060000022F8E700002640014B1868704700BF97
:10507000502B0008074BD3F8303503F00303032B04
:1050800005D0044BD3F8300500F001007047022032
:10509000704700BF0000264008B5FFF7EBFF02286D
:1050A00001D0002008BD014B1868FBE7542B000815
:1050B000134B1B6893F83E3083421DD9042904D951
:1050C000A1F580739BB2132B18D8FF290CD901F0DE
:1050D0001F010C4B00F1C00243F82210D030042213
:1050E00043F820200020704701F00701D030054B25
:1050F00043F820100020704703487047024870476B
:105100001C2B00080000264001004A0002460C4B00
:105110001B6893F83E30834200D801BE02F1D003F1
:10512000084951F8230000F00700042800D0704718
:10513000C03251F8220000F01F0040F48070F6E702
:105140001C2B00080000264008B5284B1B6893F86C
:105150003E30834200D801BEFFF7D8FF03280DD9A7
:10516000B0F58A7F40D2B0F5887F0FD3A0F5887064
:10517000032835D8DFE800F0151F3127032803D8AE
:10518000DFE800F03006090C00202CE000202AE0C7
:10519000FFF76AFF27E0FFF77FFF24E0FFF732FF0A
:1051A00021E0134BD3F80C35002B01DB00201AE073
:1051B0004FF4004017E0FFF703FF08B9002012E0AA
:1051C0004FF400400FE00A4BD3F83C35002B01DBD5
:1051D000002008E04FF4004005E0FFF715FF02E073
:1051E000002000E0034808BD0020FCE71C2B00085D
:1051F0000000264000127A00024BD3F88005C00F51
:10520000704700BF00002640024BD3F8900500F025
:1052100001007047000026400B4BD3F8882522F090
:10522000405242F00052C3F88825D3F8802522F07E
:105230000042C3F88025D3F88C2522F00042C3F841
:105240008C250020704700BF0000264010B50446A2
:1052500000286ED0FFF7D0FF00286ED12368B3F589
:10526000802F00D301BE2368C3F31103E279002A23
:1052700061D04FF080721343314AC2F88035A38861
:10528000B3F5005F00D301BE2389B3F5007F00D3DF
:1052900001BEA388C3F30C0321892A4A02EA014212
:1052A0001343274AC2F88435A37A0F2B00D901BED5
:1052B000E37A0F2B00D901BEA389B3F5005F00D3B9
:1052C00001BEA37A03F00F03E27A1201D2B21343B4
:1052D000A1891D4A02EA01221343A27B120702F0B0
:1052E00040521343164AC2F88835A379042B00D9DB
:1052F00001BE238AB3F5007F00D301BE1049D1F867
:105300008C3523F4E063A279120202F4E0621343C5
:10531000C1F88C35D1F88C3523F0FF7323F480333A
:10532000208A084A02EA00421343C1F88C35002063
:1053300010BD01BE8EE700229DE70448F8E700BFDC
:10534000000026400000FF0100FF1F0003004A008C
:10535000034638B31449D1F88025C2F31100186010
:10536000C2F30062DA71D1F88425C2F30C00988090
:10537000C2F308421A81D1F8882502F00F00987212
:10538000C2F30310D872C2F30C209881C2F30172E9
:105390009A73D1F88C25C2F302219971C2F30842A5
:1053A0001A82704701BED5E70000264038B5054691
:1053B000214AD2F88C3543F00043C2F88C350446BC
:1053C00003E0012000F000FC013C1B4BD3F89035BA
:1053D00013F0040F01D1002CF3D1174AD2F888350D
:1053E00023F0405343F00053C2F8883505B15CB157
:1053F000114AD2F8803543F00043C2F8803503E00B
:10540000012000F0E1FB013CFFF7FEFE08B9002C93
:10541000F6D105B15CB1084AD2F8883543F0405363
:10542000C2F888350DB12CB10025284638BDFFF7EC
:10543000F3FEF7E7014DF8E70000264002004A00BE
:105440000138074B1B6893F83F30834200D801BEF8
:1054500000F5C070034B53F82000C00F704700BF29
:105460001C2B0008000026400138074B1B6893F8EE
:105470003F30834200D801BE00F5C870034B53F89B
:10548000200000F0010070471C2B0008000026409F
:1054900038B501380E4B1B6893F83F30834201D872
:1054A0000C4838BD0C4D00F5C07455F8243023F07D
:1054B000405343F0005345F82430012000F084FBB2
:1054C00055F8243023F0004345F824300020E8E765
:1054D0001C2B000801004A000000264038B52F4B65
:1054E0001B6893F83F30834201D22D4838BD0446F3
:1054F0000D46FFF7A5FF002844D1AA78931EDBB222
:105500000E2B41D86B78002B40D0122B40D8297835
:10551000E87888B34FF0130C61453BD378B34FF074
:10552000380C614538D8013C95F804C0BCF1020F35
:1055300012D001F07F011B0203F4F8530B43120455
:1055400002F4F8121A43C00600F00060024304F5AA
:10555000C073144941F82320124904F5C07451F86E
:10556000243023F040532A79120702F040521343AB
:1055700041F824300020B9E74FF0160CCCE74FF08B
:10558000700CCEE70848B1E70548AFE70448ADE73F
:105590000348ABE70248A9E70148A7E71C2B00082E
:1055A00001004A000000264003004A0001380F4B6A
:1055B0001B6893F83F30834215D900F5C0700C4B3F
:1055C00053F8203003F07F020A70C3F304224A70BC
:1055D000C3F304428A70C3F3C062CA70C3F3017399
:1055E0000B71002070470348704700BF1C2B000858
:1055F0000000264001004A0070B5451E274B1B687D
:1056000093F83F30AB4246D90E46254A05F5C071A6
:1056100052F8213043F0004342F82130344603E091
:10562000012000F0D1FA013C05F5C8731C4A52F87C
:10563000233013F0010F01D1002CF1D106B1A4B138
:1056400005F5C073164A52F82330C3F30173022BD9
:1056500001D0002070BD05F5C07552F8253043F02B
:10566000405342F825300020F4E70D4C05F5C07595
:1056700054F8253023F0405343F0005344F82530CC
:10568000012000F0A1FA54F8253023F0004344F83B
:1056900025300448DEE70448DCE700BF1C2B000887
:1056A0000000264002004A0001004A00F8B5013916
:1056B000072900F2F280DFE811F008001200F00084
:1056C0001600F000F000F0007900764B1B78002BFC
:1056D00040F0E680744B01221A700027DEE00027BC
:1056E000714B1F70DAE00024704B1C80704B1C80E3
:1056F00004E02046FFF7A4FE58B901346D4B1B6847
:1057000093F83F30A3424FD3002CF2D1FFF774FD42
:10571000F2E72046FFF7FAFC02280BD0002CECD170
:10572000654AD2F8883523F0405343F00053C2F85D
:105730008835E2E7A4B9604AD2F8883523F04053AF
:1057400043F00053C2F8883500212046FFF7B0FC33
:105750000123A3409BB2554A11880B431380CCE729
:10576000621E04F27F13544951F8233013F0405F56
:1057700007D002F5C07351F82330C3F30173012B36
:1057800006D10123A3409BB24949088803430B80FB
:10579000494902F5C07251F8223023F0405343F0DA
:1057A000005341F82230CFE7002777E03F4B1B88BA
:1057B000002B59D0414CFFF75DFC022802D00CB100
:1057C000013CF8E7002C4CD13D4F374B00221A70BA
:1057D00064E0013CFFF718FD08B9002CF9D144B191
:1057E0002DBB354AD2F8883543F04053C2F888358E
:1057F0002F4601352F4B1B6893F83F30AB42E4D363
:105800000126AE40B6B2294B1B881E42F1D00221C0
:105810002846FFF74DFC002DDCD000E0013C284677
:10582000FFF722FE0028DAD1002CF7D1D7E7204B72
:105830001B881E420AD0204A05F27F1152F82130FF
:1058400023F0405342F821300027D2E71A4A05F2EC
:105850007F1152F8213043F0405342F821300027A5
:10586000C7E70025164FC5E7FFF7C6FC88B9002734
:10587000ABE7013CFFF7C8FC08B9002CF9D154B1E3
:105880000D4AD2F8883543F04053C2F888350027D6
:105890009BE70A4CEEE70A4F97E70A4F3846F8BDF8
:1058A000084FFBE74E2B00085A2B00084C2B000832
:1058B000582B00081C2B00080000264040420F0017
:1058C00002004200FF00420070B586B001A8FFF759
:1058D0003FFDFFF791FC38B19DF81230022B01D04B
:1058E000012102E0002100E00021019DBDF80840F7
:1058F00020469DF80B3083B1022681B184B100208F
:10590000FFF722FCA0FB0501A4FB062354080019A5
:1059100041F1000100F0BAFF02E00126EDE70020AE
:1059200006B070BDF0B583B0284B1B6893F83F20DC
:10593000002A44D00446002845D093F83E308342E4
:1059400000D801BE214B1B6893F83F30A34201D21F
:10595000002535E069462046FFF728FE40B10023C8
:105960001E461D461F4643B355B3AEB9354627E024
:105970002046FFF765FD38B19DF80430022B01D0B9
:10598000012302E0002300E000239DF800709DF851
:1059900001509DF80260E6E72046FFF7D5FBA0FB2B
:1059A0000707A5FB0623540844EAC374001947EB14
:1059B000530100F06BFF054602E0002500E00025E2
:1059C000284603B0F0BD0546FAE700BF1C2B0008CF
:1059D00010B504460D4B1B6893F83E30834200D847
:1059E00001BE4CB1094B1B6893F83F30A34208D26B
:1059F0002046FFF7A9FB10BDFFF766FF0028FAD18C
:105A0000F6E72046FFF78EFFF8E700BF1C2B0008E3
:105A100070B50646FFF7C2FA0446012585403046B8
:105A2000FFF78AFAFFF7D4FF00EB5500E04070BDA6
:105A300010B50020FFF7ECFF0446FFF7F3F9013043
:105A400004EB5004B4FBF0F010BD10B5FFF7F0FF0D
:105A50000446FFF777F9013004EB5004B4FBF0F093
:105A600010BDF0B583B004460E4600230193FFF746
:105A7000DFFF05460CB9072E06D9012C21D0022CD8
:105A800022D0032C23D001BE012C23D9A31EDBB2CC
:105A9000012B29D8EF0E6D016B4601AA3146204635
:105AA000FFF704F8019A531C009A02EB43125008C6
:105AB00040194FF0000347F1000100F0E7FE0546F2
:105AC00012E00F2EE0D9DAE7032EDDD9D9E7002E58
:105AD000DAD0D8E731462046FEF7C6FF0130019004
:105AE00005EB5005B5FBF0F5284603B0F0BD00000E
:105AF0000A4B9A680A4B9A4204D01030094B53F86B
:105B00002000704739B100F11003054A52F8230014
:105B100042F82310704701BEF5E700BF00ED00E03A
:105B2000002000080020001038B308B58446436800
:105B3000072B00D901BEBCF90030DCF80420002B93
:105B40000EDB5201D2B203F1604303F5614383F8E7
:105B500000230B4B9A680B4B9A4208D0002008BDDB
:105B600003F00F035201D2B20748C254F1E7BCF967
:105B70000000FFF7BDFF0020F1E70448704700BFB9
:105B800000ED00E00020000814ED00E001005600E8
:105B900038B504460B4B1B684FF0FF35B5FBF3F5EA
:105BA00006E0084B186805FB00F0FCF7B1FE641B2B
:105BB000AC42F6D8034B186804FB00F0FCF7A8FED3
:105BC00038BD00BFF022000808B5034B1B7803FB6B
:105BD00000F0FCF79DFE08BDF4220008054B4FF0D5
:105BE00000429A649B6C002B01DB00207047024846
:105BF000704700BF00002740030046000B4BD3F85E
:105C000000085B6813F0FF0F01D040F00040074B25
:105C1000D3F804389BB20BB140F48030034BD3F877
:105C200004381B0C01D040F40030704700002640BF
:105C3000FEE7000008B50268254B1A6242685A6206
:105C400082689A62C268DA6202691A6342695A63B8
:105C500082699A63C269DA631E4A916A1964D16AD9
:105C60005964516A9964516BD964926B1A65F1EE6B
:105C7000103A13F0900F28D0026A154B5A65426A09
:105C80009A65826ADA65C26A1A66026B5A66426B64
:105C90009A66826BDA66C26B1A67026C5A67426C4C
:105CA0009A67826CDA67C26CC3F88020026DC3F811
:105CB0008420426DC3F88820826DC3F88C20C26DA9
:105CC000C3F89020026EC3F89420FFF7B1FF08BD1F
:105CD0009427000800ED00E070B40446002830D09E
:105CE0001923304802681668B2F8AC50725922F095
:105CF00003028B422CBF002301231A437251026816
:105D00001668B2F8AC50725922F4407272510268AF
:105D10001568B2F8AEC055F80C2022F00302134308
:105D200045F80C3003681868B3F8AE20835823F4A4
:105D3000407383503CB110291DD9212926D8012256
:105D40001AE06423CDE7174B1B6893F855208A426D
:105D50001ED293F856208A421CD293F857208A42CA
:105D60001AD293F858208A4218D293F859308B42AD
:105D700016D3042200E000220A4B1B6859680B6806
:105D800023F00F0313430B6070BC70470222F3E74C
:105D90000022F1E70122EFE70222EDE70322EBE721
:105DA0000522E9E71C2B00084FF0B0535B7823B1C4
:105DB0004FF0B0535878C0B27047212070474FF071
:105DC000B0539B899BB223B14FF0B053988980B2F6
:105DD00070474FF48070704738B5FFF7F0FFB0F5AB
:105DE000807F16D01649D1F8483823F440731548FF
:105DF00002681568D2F89C402A5902F44072134395
:105E00002B5103681A68D3F8A030D1F84418D15048
:105E100038BD0C4A13681868D3F89C10435823F017
:105E20000F0343F00203435013681968D3F8A0200E
:105E30008B5823F00F0343F002038B50E8E700BFB9
:105E4000001000161C2B000838B5FFF7B8FFB0F59E
:105E5000807F16D01149D1F8503823F44073104890
:105E600002681568D2F89C402A5902F44072134324
:105E70002B5103681A68D3F8A030D1F84C18D150D0
:105E800038BD074B1B681968D3F89C208B5823F446
:105E9000E04343F480438B50F2E700BF001000164C
:105EA0001C2B000808B5FFF78AFFB0F5807F0FD0E4
:105EB0000D4BD3F81C3823F440730C4A1268106859
:105EC000D2F89C10425802F440721343435008BD6C
:105ED000064B1B681968D3F89C208B5823F4E043C9
:105EE00043F4C0438B50F2E7001000161C2B00084F
:105EF00038B5FFF764FFB0F5807F16D01649D1F8AA
:105F0000243823F44073154802681568D2F89C4081
:105F10002A5902F4407213432B5103681A68D3F8CC
:105F2000A030D1F82018D15038BD0C4A1368186839
:105F3000D3F89C10435823F00F0343F0030343505E
:105F400013681968D3F8A0208B5823F00F0343F08F
:105F500003038B50E8E700BF001000161C2B00085D
:105F600038B51D4B1B681A68D3F89C30D458FFF71E
:105F700026FFB0F5807F1FD004F44064164B1A68EA
:105F80001068D2F89C10425822F4406242501A68BD
:105F90001568D2F89C002A58E14301F440610A4395
:105FA0002A501B681A68D3F89C30D05800F440601F
:105FB000001B18BF012038BD0E20FEF7FFFC044671
:105FC000FFF7F2FE222802D81CB90120F3E70120D6
:105FD000F1E70020EFE700BF1C2B000800283DD0B0
:105FE0000246C368002B3BD00368002B3AD090F8E0
:105FF00004C01E4B53F82C1041B310B40C4600E003
:1060000019464B693BB1914205D0187E117E8842FA
:10601000F6D81C46F4E7914226D023694BB1636958
:106020005361146103B11A61626101205DF8044B90
:106030007047117E237E9942F1D25461002313618F
:1060400022610A4B43F82C200120EFE7074B43F86D
:106050002C0000234361036101207047002070473A
:1060600000207047002070470020DFE75C2B00080D
:1060700008B5FCF756FC074B5A6807490A4042F43A
:1060800068525A605A680A405A605B68FCF74DFCD7
:1060900008BD00BF00002640FF00FC0FF8B5074612
:1060A000012800D901BEFFF77FFE84B2FFF787FE0B
:1060B00005460E20FEF782FC0646A0B9B5F5807FA6
:1060C00001D0274E10E0222C3BD8264B1B685A6883
:1060D00002F57042936923F08073390601F08071F4
:1060E0000B43936100E01E4EB5F5807F2BD0B5F5D4
:1060F000807F24D01B4B1B6893F83330012B00D8D2
:1061000001BE184B1B681C6AB3F8BA301C44B5F5C5
:10611000807F1BD0FFB1144A01212046FEF7E6F92B
:10612000024660B90F4B1B68D3F8BC301B59002BDB
:10613000F8DBE36803F07F43B3F1204F0DD0304626
:10614000F8BD074ED0E7222CD4D8D0E70FB1074ACC
:10615000E2E7074AE0E7074ADEE71646EFE700BF57
:10616000040042001C2B00080300000C0101003059
:10617000010000300100000C024B586900F00700DC
:10618000704700BF00002640064BD3F81C3F03F0C9
:106190001F034FF0B05292F84007C0B2C01A18BFA8
:1061A0000120704700F02640034B1B6813F4000FDA
:1061B0000CBF0120002070470000264010B51E4B88
:1061C0001A681368D2F89000195801F003010329E6
:1061D00005D0195811F0010F10D0022400E004245A
:1061E000D2F894105A5802F00302032A08D05B58E0
:1061F00013F0010F0FD044F0200403E00124EFE777
:1062000044F04004FFF7D0FF58B1FFF7BDFF28B1BD
:1062100044F080000BE044F01004F3E744F4006025
:1062200005E0FFF7A9FF022802D044F0800010BD6E
:1062300044F40060FBE700BF1C2B000808B5FFF723
:10624000BDFFC0F3C02008BD08B5FFF7ADFF88B1A2
:106250001B4A136823F0A64323F48023136008200D
:10626000FFF7B2FC6423164A1268002A0ADB4BB11E
:10627000013BF8E7124A136823F0A44323F4802378
:106280001360ECE70BB90F4808BD0D4A136823F003
:10629000806313600120FFF797FCFFF785FF08B9C3
:1062A0000020F1E7FFF770FF012801D00020EBE7A5
:1062B000054BD3F81028054BC3F8302F0020E3E737
:1062C0000000264002004200001000160070264028
:1062D00008B5FFF769FF38B1044B054A12689343CC
:1062E0000CBF0120002008BD024BF6E7000004535C
:1062F0000000264000000452F8B50446012800D9E9
:1063000001BEFFF72DFE10B92B4D2846F8BDFCF756
:1063100008FB074694B9294B0022C3F8302F4FF0F1
:10632000B05393F84067F6B20120FFF7B7FE054679
:1063300008B15DBB1DE0FFF74FFDFAE7FFF7C8FFAF
:1063400040B31E4B5022C3F8302F4FF0B05393F898
:106350004167F6B21A4AD2F81C3F23F01F0343F0FC
:106360000B03C2F81C3F0320FFF72EFCFFF76CFD68
:106370000025134AD2F81C3F23F01F0306F01F0626
:106380001E43C2F81C6F64B9FFF78CFD3846FCF75A
:10639000CCFABAE70B4BD3F81028084BC3F8302FD0
:1063A000D3E70720FFF710FCFFF7A2FD0020FFF75F
:1063B00075FE0546EAE700BF030042000070264074
:1063C00000F0264000100016024B5868C0F3404011
:1063D000704700BF00002640084B5B6CC3F30723E7
:1063E0003A2B00D07047054A536C23F0005323F436
:1063F000685343F468535364F4E700BF0000274038
:10640000034A536C23F47F4343F468535364704747
:10641000000027404FF0E022136943F002031361AC
:106420007047B0F1807F00D301BE20F07F404FF075
:10643000E023586170474FF0E02300229A617047D3
:106440004FF0E023186900F48030704710B5FFF773
:10645000F7FF50B910BD0134042CFBD8044B53F89E
:106460002430002BF7D09847F5E70024F4E700BF6D
:10647000742B000808B5FFF7CDFF4FF0E022136939
:1064800043F00103136108BD04280FD000060B4B35
