:020000041000EA
:1000000000200008EB0000100D0000004D01001062
:1000100000000000000000000000000000000000E0
:100020000000000000000000000000004901001076
:10003000000000000000000049010010490100100C
:100040004901001049010010490100104901001048
:100050004901001049010010490100104901001038
:100060004901001049010010490100104901001028
:100070004901001049010010490100104901001018
:1000800010B5064C2378002B07D1054B002B02D06E
:10009000044800E000BF0123237010BDB003000836
:1000A0000000000014150010044B10B5002B03D005
:1000B0000349044800E000BF10BDC0460000000036
:1000C000B4030008141500100230800803D001307A
:1000D0000238FCD1C046C0467047EFF3108072B6BC
:1000E000704780F3108870477047FFF7FDFF72B6C6
:1000F0000F4C104DAC4209DA21686268A368043BDA
:1001000002DBC858D050FAE70C34F3E70A490B4A2F
:100110000020521A02DD043A8850FCDC08480949E4
:100120000860BFF34F8F00F0EDFE00F09BFEFEE78E
:100130002015001038150010B0030008C80500088D
:100140000000000808ED00E0FEE7FEE700B504202F
:100150007146084202D0EFF3098002E0EFF3088015
:10016000043000F091FCFEE7014B18607047C04678
:10017000CC030008044B1B681A00BA3212881B6AB1
:100180005043C0187047C046CC030008A02300B5F8
:100190001B06984226D015D8802825D00AD81028CA
:1001A00024D0402824D000280BD0154809E0A420F2
:1001B000C00306E08022134B520090421CD09842AC
:1001C000F3D100BD104B984218D0104BC018042832
:1001D000EBD800F035FFECEA0F0305000C48F0E720
:1001E0000C48EEE70020ECE70B48EAE70B48E8E7AD
:1001F0000B48E6E70B48E4E71800E2E7A020D7E762
:10020000FF00520006005200090000A0FFFFFF0F90
:10021000020052000300520005005200010050008D
:10022000020050000100520010B50020FFF7A2FFAD
:100230000A4B1C682300BC331B68C0180368002BE2
:100240000ADB074B1868FFF7A1FF012263689A6079
:100250009A68002AFCD110BD0248FCE7CC030008D4
:10026000D003000802005000064B1B68BC331B681B
:10027000C3181B68002B03DA89B241600020704765
:100280000148FCE7CC03000801008A000368002B4A
:1002900004DA89B2C2608160002070470048FCE740
:1002A00001008A00064B1B68BC331B68C3181B681F
:1002B000002B03DAC36800200B6070470148FCE79D
:1002C000CC03000801008A00024B1A68002A00D102
:1002D00018607047E4030008F0B52C244443154827
:1002E0001F0000681E0A0019FF2426402740124CF8
:1002F0001B0C256807602C6A46608360BA352D8820
:100300006F433F190761370080377F01E7190B4DB5
:1003100076014761A4191F043B436419236000233D
:100320008361059BC2610162002B01D01B88838120
:10033000F0BDC046E4030008CC030008081000002C
:10034000F0B5836885B002AD2B800368066A173369
:100350006B804368476A0095826AC16A0400039310
:100360000369C068FFF7B8FF00213B000A003000B6
:100370000091FFF7B1FF2800216B00F039FB00224C
:10038000AB5E002B06DB1F2213401E3A9A4013007F
:10039000014A136005B0F0BD00E100E0F7B52C267E
:1003A000134C70434E43246801932518A4192E69F9
:1003B000002E19D0A069002818D13168002915DA5B
:1003C00001216F680D0063689D40AC4613689DB2C3
:1003D00063461B041D431560F260A161B940019B97
:1003E00089B26362B160FEBD0248FCE70248FAE7E9
:1003F000E403000804028A0007028A0073B500269D
:1004000042690400D56801962B0CB34221D01B042D
:1004100013601368194B00691B68BC331B68C31851
:100420001B68B34215DA01A9FFF73CFFB0420CD1BB
:100430000198E26903681E0CDBB29A4205D9226A70
:100440009B009B58002B00D0984731002069FFF794
:100450000BFFADB2002D09D063691D6000251B683C
:10046000636AAB4205D098476562A56163691B6802
:1004700073BDA36A002BF8D09847F6E7CC030008B9
:100480002C2310B54343034A1068C018FFF7B6FF8A
:1004900010BDC046E40300081A4B70B51A680C0082
:1004A000130033331B7883422AD9002928D00D68E2
:1004B0001F212B000B400D4222D11100BA310988B7
:1004C000126A48431900104D8018286022685209AA
:1004D000934210D30021FFF7C7FE002122002868B5
:1004E000FFF7D4FE011E04D12868FFF7BDFE0028E7
:1004F00000D0064870BD66689A0091510133E5E767
:100500000348F7E7CC030008E803000801018A006C
:1005100003018A0010B504000800002A0CD100294C
:1005200013D10B4B1A681300BA331B88126A63434A
:100530009B18084A136010BD002906D006490860C0
:1005400020004A60FFF7A8FFF5E70448F3E7C0463C
:10055000CC030008E80300087803000803018A00C0
:10056000F7B5184F04003B680191DE683368834299
:1005700026D90025A94202D1FFF7AFFD0500386852
:100580000368002B1ADA1F220123224093406409DA
:100590007268A4001419226813420DD09A43226095
:1005A00000240021FFF760FE019B002B02D12800F0
:1005B000FFF797FD2000FEBD034CF2E7034CF3E785
:1005C000034CF7E7E80300080201880003018800F4
:1005D00004018A000A4B1B68DB681A6882420DD945
:1005E00059681F23420918401E3B8340920050580F
:1005F0001840431E9841034BC01870470248FCE75F
:10060000E80300080001880004018A00054B1B680C
:100610001A0088321B6812689B181868000AC0B25A
:100620007047C046CC030008044B1B681A00883290
:100630001B6812689B181868000E7047CC030008EE
:10064000034BE0308000C0588006800F7047C046E2
:1006500000002640024B18694007C00F7047C04693
:1006600000002740A6220549D2008B580220DB4318
:100670009B0702D00123885818407047000026408D
:1006800010B5FFF7EFFF0023022801D1014B1B68D3
:10069000180010BDF0030008094A83009B18D022FF
:1006A0009200985807221040042807D1C0229200D7
:1006B00098581F2303408020400018437047C046CD
:1006C0000000264010B5FFF7E7FF88235B00984243
:1006D0001AD009D8012811D0022812D0434258411B
:1006E000114B4042184010BD1223FF33984213D0E3
:1006F0001423FF33984214D00020F4E70B4B186802
:10070000F1E7FFF7BDFFEEE7094A0A4BD358002B8C
:10071000F2DA80200002E6E7FFF79CFF0028EBD02A
:10072000F7E7034A044BF1E700127A00EC030008F4
:10073000000026400C0500003C050000B023154ACF
:10074000DB00D35810B59903DB01DB0F890BC371B4
:10075000114B0160D3580F24D904DB01DB0D038159
:10076000B123DB00D358C90C81801900214081726C
:1007700019092140C172D9029B009B0F8373074B5B
:10078000C90CD35881815A05DB01520FDB0D8271F0
:10079000038210BD00002640840500008C05000087
:1007A0008030034BFF308000C058C00F7047C046F8
:1007B0000000264010B5104B421E1B683F331B78CB
:1007C000934216D97F221F2480300C4BFF308000CB
:1007D000C3581A400A701A0C2240180A8A701A016B
:1007E0002040E240487000209B009B0FCA700B71B4
:1007F00010BD0348FCE7C046CC03000800002640BB
:1008000001004A00F0B589B003AC2000FFF796FF65
:10081000B0231A4ADB00D25800239A4203DAA37BA2
:10082000023B5A1E9341E57900266A1E9541013527
:10083000B34220D0A488B4421DD03000039FFFF7FC
:1008400041FF2A00330031000190200000F0AEFC8F
:100850000C00050033003A003100019800F0A6FCBE
:10086000E6076A0832436308801859412A002300CA
:1008700000F07CFC0600300009B0F0BD000026400E
:10088000F7B5234B06001B683F331B78002B08D0BD
:1008900000283BD0834204D36946FFF78BFF041E38
:1008A00001D0002632E03000FFF77AFF2300002855
:1008B00005D06B461C79023C23005A1E93416A46C0
:1008C0005478002BEDD0002CEBD09578002DE8D09B
:1008D00030001778FFF7F6FE002306002A002000FC
:1008E000190000F063FC00230C0005003A00300002
:1008F000190000F05BFCE6076A08324363088018C1
:1009000059412A00230000F031FC06003000FEBDF2
:10091000CC03000810B5041E04D1FFF773FF0028B4
:1009200006D008E0064B1B683F331B78834203D296
:100930002000FFF7C7FE10BDFFF7A2FFEFE7C0469C
:10094000CC03000870B50500FFF77AFEE035074BD1
:10095000AD000400E8580F231840FFF7DBFF012328
:10096000A3405B081818E04070BDC0460000264058
:10097000144B30B51C6823002C331A7807231F2A28
:1009800015D8820815009D432B1E0FD10333184044
:10099000984081402368920020339B180A00FF2171
:1009A00081401C68624011406140196030BD1840B0
:1009B00080231B06184380239B012268C9188900E5
:1009C0008850F3E7CC030008064B10B59A68064C34
:1009D00010308300A24202D19858995010BD034AAA
:1009E000D058FBE700ED00E0000000080000001018
:1009F000F8B506000D0000283AD00023C05E00289C
:100A000028DB7188FFF7B4FF0024FF2203279446F8
:100A10000023F05E71680740FF006646BA40890116
:100A20003140D243B94083B2002815DB114E830810
:100A30009B009B19C026B6009F593A40114399511B
:100A40000D4B9A680D4B9A4202D12900FFF7BCFF6B
:100A50002000F8BD0A4CD8E70F263340083B064E6D
:100A60009B089B009B19DE6932401143D961E7E77F
:100A7000034CEDE700E100E000ED00E000000008BD
:100A800001005600FEE7000002680A4B10B51A602C
:100A900042685A6082689A60C268DA6002691A61C4
:100AA00042695A6182699A61C269DA61FFF7EAFFB5
:100AB00010BDC04690030008B0235B055A78212082
:100AC000002A01D05878C0B27047B0235B059A89DC
:100AD000002A02D0988980B2704780204000FBE74E
:100AE0007FB5274B86000D00F458042901D0012959
:100AF00027D100200FE0A3682B420BD1E368290027
:100B00001A685B6802920193039302A823689847CE
:100B10001C4B1C606469002C0BD01B4B9842EAD123
:100B2000012DE8D1174B18481A68184B9A5104B098
:100B300070BD012DFBD1144B9842F3D0134B9C5147
:100B4000F5E7022915D026006469002CFBD10020AE
:100B5000002EECD0B3682B4209D1F36829001A6843
:100B60005B6802920193039302A833689847366941
:100B7000EEE7044B1B68181ED9D01E69E7E7C04694
:100B80003404000830040008FF0042001C04000880
:100B90001A4B1B68190088311A68096851180968CE
:100BA000016219008C3109685218126842621A00F9
:100BB00046321278002A1FD09A68E0321268D206B4
:100BC0001AD5F222DB68D2019A580260F022D201D3
:100BD0009A5842600A4A9A5882600A4A9A58C260F1
:100BE000094A9A580261094A9A584261084A9A5831
:100BF0008261084A9B58C3617047C046CC03000815
:100C000004780000087800000C78000010780000DC
:100C100014780000187800001A4B1B681A008832FC
:100C2000196812688A18016A11601A008C321968F2
:100C300012688A18416A11601A0046321278002A36
:100C40001ED09A68E0321268D20619D5F0224168A7
:100C5000DB68D201995081680B4A9950C1680B4AF0
:100C6000995001690A4A995041690A4A9950816923
:100C7000094A9950C169094A99500168E832995066
:100C80007047C046CC0300080478000008780000D4
:100C90000C7800001078000014780000187800002C
:100CA000F7B50700FFF708FF5D4D06006B68002BE6
:100CB00000D07DE0FFF711FA6B680090002B00D0A8
:100CC00089E0584C22681300BA33198807234B4334
:100CD000126A9B181A68002AFCDADB68DA0021D550
:100CE0001B0F1B0750480193FFF752FF20684F4925
:100CF000030088331C6803681C1923680B40212EED
:100D000000D06DE0902212011343236003008C3366
:100D100000681B68C318186801400A431A60424BF8
:100D2000019A134380223F4E9205316813430A0013
:100D3000BA321088072200244243096A5218D3604D
:100D400054605368FFF7C1FE80235B0098424AD18C
:100D5000380000F05DFB32681300BA3319880723AE
:100D60004B43126A9B181A68002AFCDADF68FB0002
:100D700003D538010009FFF74FFF2D4B32681F40A4
:100D80001300BA33198807234B43126A00989B1843
:100D90000022DF605A60FFF7A4F9002C0FD16B68C6
:100DA000002B03D008210120FFF79AFE2000FEBD92
:100DB00001210800FFF794FE041E00D17AE76B685A
:100DC000002B03D002210120FFF78AFE194B9C4221
:100DD000ECD0194CEAE704210120FFF781FE70E70F
:100DE0008022520090E733681A00BC32196A1268F8
:100DF00052181168002910DBBA331B889A1813683F
:100E0000002B0ADB04230D4A11690B431361012FE8
:100E100001D030BF9FE720BF9DE7064C9BE7C0464F
:100E200034040008CC030008F4030008FF00FFFFAF
:100E3000FFFFFFDF05004200FF00420000ED00E081
:100E4000C0228020064952008B58C0059B009B0899
:100E500003438B50802388581B0603438B507047F5
:100E60000000264010B562B6034800F0C3F8002029
:100E7000FFF716FFFBE7C0460020001010B500206A
:100E8000FFF7FEFA10BD704710B50020FFF75AFDBE
:100E9000041E28D0144B1860FFF7C6FB411C20002D
:100EA00000F0D8F8114B04001860FFF7AFFB411CAD
:100EB000200000F0CFF804000D4B013C18600D49F4
:100EC000200000F0C7F8FA210B4B013018708900A0
:100ED000200000F0BFF8094B013018600020FFF738
:100EE00031FD074B186010BD880000088C00000819
:100EF0008000000840420F009400000890000008A5
:100F00008400000810B52048FFF72EF9B022E02138
:100F100030201E4CD200A35889005B005B08A35010
:100F200063588343635080235B04A350184B194AD2
:100F3000E250A02204339201E250FF22164BE2500D
:100F4000FFF77EFFC02201215200A3588B43A3501C
:100F5000FFF799FFFFF798FF104B03201A68130063
:100F6000BA33198807234B43126A80219B18002249
:100F7000DA605A600A4AFFF7CDFA0A48FFF7A4F987
:100F80000948FFF7DDF910BD2014001000002640CD
:100F900084050000010002008C050000CC0300085D
:100FA0008003000848040008E01400109023034A5E
:100FB0005B01D058032318407047C0460000204012
:100FC00010B59024FFF789F8074B64011A590749B7
:100FD0001140074A0A431A51102259681142FCD0A5
:100FE000FFF77FF810BDC04600002040FCFF000066
:100FF0000100FA05F8B590260E4C76010700FFF7C0
:101000006CF8A3590500DB439B0701D1FFF7D8FF1C
:1010100080239B00E750A359074A1A40074B13430C
:10102000A351102362681A42FCD02800FFF759F838
:10103000F8BDC04600002040FCFF00000300FA0598
:1010400002B4714649084900095649008E4402BC61
:101050007047C046002243088B4274D303098B4279
:101060005FD3030A8B4244D3030B8B4228D3030C78
:101070008B420DD3FF22090212BA030C8B4202D31A
:101080001212090265D0030B8B4219D300E0090A42
:10109000C30B8B4201D3CB03C01A5241830B8B424B
:1010A00001D38B03C01A5241430B8B4201D34B0334
:1010B000C01A5241030B8B4201D30B03C01A524199
:1010C000C30A8B4201D3CB02C01A5241830A8B421E
:1010D00001D38B02C01A5241430A8B4201D34B0207
:1010E000C01A5241030A8B4201D30B02C01A52416B
:1010F000CDD2C3098B4201D3CB01C01A524183091F
:101100008B4201D38B01C01A524143098B4201D358
:101110004B01C01A524103098B4201D30B01C01A83
:101120005241C3088B4201D3CB00C01A52418308FD
:101130008B4201D38B00C01A524143088B4201D32A
:101140004B00C01A5241411A00D20146524110468A
:101150007047FFE701B5002000F006F802BDC04669
:101160000029F7D076E770477047C046002B11D1B1
:10117000002A0FD1002900D1002802D00021C94344
:10118000080007B4024802A14018029003BDC046FF
:10119000D9FFFFFF03B4684601B5029800F034F8A8
:1011A000019B9E4602B00CBC7047C046F0B5CE46CF
:1011B000474680B5070099463B0C9C4613041B0C20
:1011C0001D000E0061460004140C000C45434B4307
:1011D00060436143C0182C0C20188C46834203D90D
:1011E00080235B029846C444494679437243030C0A
:1011F00063442D042D0CC918000440198918C0BC83
:10120000B946B046F0BDC046F0B557464E464546D5
:10121000DE46E0B504000D009246994683B08B424D
:1012200030D82DD04946504600F0D8F829000600A5
:10123000200000F0D3F8331A9846203B9B4633D465
:101240005A465346934042461F00534693401E0061
:10125000AF423AD8AF4200D178E05B46A41BBD4113
:10126000002B00DA75E00022002300920193012395
:101270005A4693400193012342469340009328E04D
:101280008242CFD900220023009201930C9B002BB5
:1012900001D01C605D600098019903B0F0BCBB46B2
:1012A000B246A946A046F0BD424620239B1A5246AC
:1012B000DA40414613004A468A40170042461F431F
:1012C000534693401E00AF42C4D90022002300922F
:1012D00001934346002BD9D0FB0772081A434646B8
:1012E0007B080EE0AB4201D1A2420CD8A41A9D416A
:1012F000012024196D410021013E24184D41002E8A
:1013000006D0AB42EED9013E24196D41002EF8D132
:10131000009801995B4600196941002B24DB2B00E2
:101320005A464446D3402A00E2401C005B46150062
:10133000002B2ADB26009E40330026004746BE4095
:101340003200801A9941009001919FE7A342BCD8D6
:1013500083E74246202300219B1A0022009101923C
:101360000122DA40019286E7424620239B1A2A0096
:1013700046469A402300F340444613432A00E24085
:101380001C005B461500002BD4DA42462F002023B8
:10139000260097409B1ADE403B003343CDE7C04612
:1013A0001C2101231B04984201D3000C10391B0A95
:1013B000984201D3000A08391B09984201D3000959
:1013C000043902A2105C40187047C04604030202B0
:1013D00001010101000000000000000010B500291B
:1013E00003D1FFF7DDFF203002E00800FFF7D8FF50
:1013F00010BDC046F8B5C046F8BC08BC9E46704754
:10140000F8B5C046F8BC08BC9E4670470000000016
:1014100001B40248844601BC604700BF6102000875
:1014200000002040000024400000004000000000B8
:1014300000002340000030400000314000009F4089
:10144000000022400000104000009D40202020208D
:1014500020101010101D1D8017007500FF030602DC
:1014600006003604102000007FC0000000040000C9
:10147000000000000019324B647D00000000008075
:101480004000080B100000000000FF012002001FB8
:1014900000800004FF081018001000140018001C41
:1014A0004044484C500000000810000008000000B4
:1014B00004000000041000000012000004210000DD
:1014C000002100000016000040114002C413001368
:1014D0008013A01340138813A81320001C000000E1
:1014E00003000000010000000100000000000000F7
:1014F000050360000400000001000000000000007F
:10150000010000000604600008000000A8050008B3
:101510007D0E001000000000F0FCFF7F01000000C5
:1015200000000010000000088000000040150010BE
:1015300080000008F8020000B00300081802000054
:1015400000093D0000093D0000127A0000093D003D
:10155000A00F000004000000A9000010810000108E
:1015600080B230B5C400002820D0114B0722186883
:101570000300BA331B885343026A9A181168002982
:10158000FCDA3E210B4A062511600B4A0B4911601B
:10159000A3210B4AC90055500A495450006A5458B7
:1015A0001B18002058605358002BFCDA30BDC04691
:1015B000CC03000804012640080126401E1F00003D
:1015C000000026401C05000010B54378FF2B11D108
:1015D00000F0FAF80400032000F00EF90121C368BE
:1015E0005B681A680A431A601A680A42FCD1200034
:1015F00000F01AF910BDF7B507000020019100F0C6
:10160000FBF83E4C050023681A005033BC321668C4
:101610001B788619002B59D000F0F6F800900328AB
:101620001AD000F0D1F8364A364B0400D358002BBC
:101630003CDA01212800344A00F0D6F8002835D1E0
:101640000198FFF78DFF002F3ED03368002BFCDBA5
:1016500000F0B2F805002AE0062000F0CDF823687B
:10166000BC331B68C0180368002B02DA274D280022
:10167000FEBD002000F0B0F8254B9842F6D00023C4
:10168000244A19000120126800F0C6F8041EEDD1AA
:10169000002000F0A1F81E4A1F4B904203D09C424C
:1016A000E4D00134F4E79C42BBD1DFE7174D009B47
:1016B000032B05D10121002000F076F80028F9D194
:1016C000200000F0B1F8D2E7144DF0E700F07CF80C
:1016D000012104000C4A280000F086F8002808D1F7
:1016E000002F08D03368002BFCDB00F065F8050004
:1016F000E6E7064DE4E7094DE2E7C046CC03000803
:10170000000026401C050000D00300080500520020
:1017100001018800E0030008F049020001005000C8
:10172000184BF7B51B6818495A6804230C69234302
:101730000B61012824D030BF1300FC331B69002B40
:101740001DD1A324114B12481249E40007681E5909
:101750000D680195104D056006251D513E240C6055
:101760000E4C3E351D511D59002DFCDA0C4CFC323F
:101770001461A322D20007609E50019B0B60F7BD4D
:1017800020BFD9E7CC03000800ED00E000002640B0
:1017900008012640040126401E1F00001C05000011
:1017A000AAAAAAAA0000000001B40248844601BC0B
:1017B000604700BF6105001001B40248844601BCC7
:1017C000604700BF2902001001B40248844601BCF2
:1017D000604700BFDB00001001B40248844601BC32
:1017E000604700BFD505001001B40248844601BC23
:1017F000604700BF8D02001001B40248844601BC5E
:10180000604700BF7501001001B40248844601BC66
:10181000604700BFAD0F001001B40248844601BC10
:10182000604700BF9D03001001B40248844601BC1C
:10183000604700BFE300001000000000000000004F
:101840000000000000000000000000000000000098
:1020000000F80F08252300100D0000009923001090
:10201000992300109923001099230010000000005C
:1020200000000000000000000000000095230010E8
:102030009523001000000000952300109523001048
:102040009523001095230010952300109523001070
:102050009523001095230010952300109523001060
:102060009523001095230010952300109523001050
:102070009523001095230010952300109523001040
:1022E00010B5054C237833B9044B13B10448AFF350
:1022F00000800123237010BDB429000800000000F5
:10230000D4B7001008B5034B1BB103490348AFF322
:10231000008008BD00000000B8290008D4B70010F4
:1023200070477047FFF7FCFF72B6144C144DAC4277
:1023300009DA21686268A368043BA2BFC858D0507C
:10234000FAE70C34F3E70F490F4A00209142BCBF73
:1023500041F8040BFAE70D480D490860BFF34F8FB1
:1023600000F084F800F068F8FFF7DBFF05F0FEF9F5
:1023700000F0B0FA05F0E6F9FEE70000E0B7001063
:10238000F8B70010B4290008082E00080020000843
:1023900008ED00E0FEE7FEE700B5042071460842C4
:1023A00002D0EFF3098002E0EFF30880043004F07C
:1023B00081F9FEE708B5012002F0CAFB08BD7047AD
:1023C00010B5002004F0AAF800B910BD0446124B65
:1023D000186003F0ADFA0130B4FBF0F00F4B186059
:1023E00003F0BEFA0130B4FBF0F40D4B1C60013C6D
:1023F0000C4BA3FB04239B0C01330B4A13700B4BB8
:10240000A3FB0434A4090134094B1C60002004F030
:1024100085F8084B1860D8E7E8220008EC2200088D
:10242000E022000883DE1B43F4220008D34D621033
:10243000F0220008E422000808B5094801F06AFF0C
:10244000FFF7BDFFFFF7BCFF00221146032002F09B
:10245000DBFB044802F024FA034802F079FA08BDD5
:1024600024B30010D029000868AE0010EFF31081EB
:1024700072B6074AD2F8883043F47003C2F8883045
:10248000BFF34F8FBFF36F8F81F31088704700BF8A
:1024900000ED00E008B500F0CBF800F00FF800F018
:1024A000BDF800F047F800F04DF808BD08B500F0A1
:1024B000BDF900F02DF800F05FF808BD08B50F2158
:1024C000012003F085F900220F21012003F05AF8C2
:1024D0000F21012003F03AF90021084603F078F9B2
:1024E00000221146104603F04DF80021084603F083
:1024F0002DF90721002003F06BF900220721104677
:1025000003F040F80721002003F020F908BD000087
:1025100008B5054800F0E4FD044800F0E1FD04487A
:1025200000F0DEFD08BD00BFA4AE00109CAE0010A0
:10253000A0AE001008B5002211462F2003F0CAF803
:1025400008BD000010B5084C084A0421204602F0DE
:10255000ADF8074A0621204602F0A8F8054A0721EF
:10256000204602F0A3F810BD0003314044AF001034
:102570000CAF0010D4AE001008B5184800F0B0FD44
:10258000174800F0ADFD174800F0AAFD164800F00E
:10259000A7FD164800F0A4FD154800F0A1FD154860
:1025A00000F09EFD144800F09BFD144800F098FDDB
:1025B000134800F095FD134800F092FD124800F01A
:1025C0008FFD124800F08CFD114800F089FD114884
:1025D00000F086FD104800F083FD08BD7CAF0010C0
:1025E00080AF0010BCAE001078AF001040AF0010FC
:1025F00008AF0010A8AE0010ACAE0010B0AE0010D6
:10260000B4AE0010B8AE0010C0AE0010C4AE0010E2
:10261000C8AE0010CCAE0010D0AE0010024B33227A
:102620009A601A61704700BF00203040FEE700004A
:1026300030B583B007220021322003F04BF89621F9
:10264000002004F089F804F019F8C0B96F4BD3F8F2
:10265000004F04F03F0404F001F830B1012003F012
:10266000F3FF6B4B9B6C002B26DB684BC3F8004FD2
:1026700003F05CFA03F050FA012003F06BFA01203A
:1026800004F076FD04F01CFD04F0F6FD04F0E0FD1E
:1026900003F048FB0021084603F0E6F9002003F0B0
:1026A00051F9012003F036F9002003F0C3F8594B2B
:1026B0001B6893F83F4006E00620FFF7B7FF20466F
:1026C00003F06CFC013C002CF9D10021012003F047
:1026D00075FA002003F0B6F900287BD000210846E7
:1026E00003F06CFA0021084603F08CF94A4D0024EF
:1026F0000094234622462146284601F0D9FE009444
:10270000234622460121284601F0D2FE434803F029
:10271000E5F900286AD1012003F0ECF8002003F06D
:1027200011F9002003F0F6F8002003F083F80021EF
:10273000012003F043FA0021084603F03FFA00218C
:10274000022003F03BFA0021032003F037FA0021B6
:10275000042003F033FA0021052003F02FFA30485B
:1027600003F0FAFA002844D12E4803F0A5FB002814
:1027700042D10021084603F045F90021084603F044
:1027800073F92949012003F02FFCC0BB42F21071FC
:10279000012003F0B7FCA8BB03F0A2F8002003F06F
:1027A00073F8002003F086F803F090F80021084643
:1027B00004F0C2FD012003F057F803F0ADF9012049
:1027C00003F0C8F96421002003F0C6FFFFF7F8FD0D
:1027D00003B030BD03F020FA40F2111398427FF4A9
:1027E0007DAF0121002003F00DF977E70520FFF709
:1027F0001DFF0420FFF71AFF0420FFF717FF032037
:10280000FFF714FF0320FFF711FF00BF00F0274080
:1028100000002740A02C00080000314040420F007B
:1028200084AF0010400D0300B0AF001008B5094898
:1028300000F056FC084800F053FC084800F050FC3B
:10284000074800F04DFC074800F04AFC064800F03D
:1028500047FC08BD98AF00109CAF0010A0AF00105F
:10286000A4AF0010A8AF0010ACAF001008B504482A
:1028700004F0F4F808B1002008BD0248FCE700BFEE
:10288000F82200080000020610B500F027FC0446FC
:1028900038B154B1FFF7FEFDFFF708FE5CB12046EA
:1028A00010BD00F0A1FF0446F3E740F6E44100202C
:1028B00000F0F0FFEEE7FFF7D9FF0446EFE7000076
:1028C000014B01221A707047682B000800B101BE4D
:1028D0007047000070B582B0FFF7D6FFFFF7F6FF34
:1028E0004FF4E1330093FF231A462821292004F0F6
:1028F0007FFDFFF7EBFF0123062219460D2000F0B4
:1029000067FAFFF7E3FF012302220021042000F011
:102910005FFAFFF7DBFF1F491F4B0B60042000F03D
:10292000C3FA012307220221042000F0E3FA62B671
:102930001A4805F0C1FB1A4805F044FC4FF4FA763A
:102940001BE0FA2624E0174D2B6898690022052128
:10295000803001F00FFE304600F0A6FF2B6898692A
:1029600001220521803001F005FE304600F09CFF79
:102970000134032CE7D900F07FFF0B4B1B783BB1F0
:10298000094B00221A70B6F5FA7FDAD04FF4FA76C6
:102990000024EEE7582B0008C1280010B8AF001043
:1029A000C4AF0010A02C0008682B00080000000035
:1029B0000230800803D001300238FCD100BF00BFD4
:1029C0007047EFF3108072B6704780F3108870473D
:1029D00001BE0148704700BF02020204024B0B60B7
:1029E00009231360002070471423000808B54078BD
:1029F00003F094FD08BD000038B5054614468A4230
:102A000094BF00230123834209D080F001038A424E
:102A10002CBF002101218B4201D04DB138BD04F003
:102A200049FB0549A1FB0431890C03F095FEF4E74D
:102A3000FFF7C6FCF2E700BF83DE1B432DE9F04140
:102A400004460A78A2F10D03DBB2012B04D90F2A48
:102A50002FD14E78013600E04E78002003F024F8A4
:102A60000746002002F0EEFF03F038FD20FA07F8D9
:102A7000304603F033FD20FA07F763786BB1F1B20B
:102A8000607802F0BFFF054663789BB958B93A46B3
:102A900041460020FFF7B0FF0CE03A4641460120D6
:102AA000FFF7AAFFEBE7424639460020FFF7A4FFF5
:102AB00000E0024D2846BDE8F08100BF010202049B
:102AC000F8B505460139072935D8DFE801F00426B5
:102AD000340634343424002600E00226002002F0BC
:102AE000E3FF0746002002F0ADFF03F0F7FC20FAF9
:102AF00007F720FA06F46B788BB13146687802F05C
:102B0000B3FF06466B78BBB978B922463946002038
:102B1000FFF772FF10E00326E0E70126DEE722461A
:102B200039460120FFF768FFE7E73A4621460020D3
:102B3000FFF762FF00E0014E3046F8BD00020204DC
:102B400008B519B1407802F017FF08BD407802F0CF
:102B50003DFFFAE708B5407802F026FF08BD08B54A
:102B600090F800C01CF0020F06D14A1E41780CF00C
:102B7000030002F007FD08BD00234A1E41780CF057
:102B8000030002F041FDF6E708B531B10378417862
:102B900003F0030002F0DAFD08BD0378417803F08A
:102BA000030002F015FEF7E70048704774B100100B
:102BB0002DE9F04182B007460D469046084601F0E7
:102BC00010FBC6B2002401E00134E4B2B44213D2D7
:102BD00005238DF804308DF805508DF8064001A8C6
:102BE00000F07EFA03460028EED13D707C70012291
:102BF000BA70C7F8048000E0024B184602B0BDE886
:102C0000F08100BF020E020430B583B00C460546C9
:102C100078B184B105238DF8043023788DF8053020
:102C200063788DF8063001A800F05AFA28B103B095
:102C300030BD01BEEDE701BEECE7226863682A60A3
:102C40006B600123AB70F2E710B5034648B118780A
:102C5000122808D003280AD9586844681846A047A3
:102C600010BD01BEF3E71846FFF76AFFF8E7184604
:102C7000FFF78AFFF4E708B5034648B11A78122A2D
:102C800008D0032A0AD95A6812691846904708BD25
:102C900001BEF3E71846FFF713FFF8E71846FFF702
:102CA0005EFFF4E710B582B0044690B1A37803B993
:102CB00001BE05238DF8043023788DF80530637844
:102CC0008DF8063001A800F04FFA0023A37002B07F
:102CD00010BD01BEEAE708281CD8DFE800F0092390
:102CE000051E0B0D0F1113000A20012917D0704784
:102CF000082070470C20F8E70D20F6E70E20F4E7D7
:102D00000F20F2E74B1EDBB2012B01D90820ECE7C4
:102D10000E20EAE701BE0820E7E70B20E5E700F018
:102D2000070070470020E2E72DE9F041EFF305834B
:102D3000103B1BB24FF0010808FA03F830E0224BB9
:102D40001B689E693AE00221236860689847A4687E
:102D5000C4B1257B05F007052946304601F07FFC0C
:102D60000028F4D02946304601F04EFDC1B24B1E7A
:102D7000012BE9D92946304601F0F4FB0028E2D0C6
:102D80000121E1E7072C06D82146304601F04AFC34
:102D90000134E4B2F6E7012303FA07F728EA07084B
:102DA000B8F1000F0ED0B8FA88F7C7F11F070E2F41
:102DB000C5D8054B1B689E6906EBC716034B53F835
:102DC0002740C5E7BDE8F081A02C0008D028000806
:102DD0002DE9F04387B00F4616461D462F4B1B7852
:102DE000FBB94FF0000C07E02D4C002344F82C30C9
:102DF0000CF1010C5FFA8CFCBCF10E0FF4D94FF012
:102E0000000C08E0264B03EB4C0300229A870CF1E0
:102E1000010C5FFA8CFCBCF1050FF3D91F4B0122AA
:102E20001A700B238DF80830C4088DF8094000F0A3
:102E300007088DF80A80029BADF814301B0C8DF842
:102E40001630059BADF810301B0C8DF81230049B2A
:102E5000ADF80C301B0C8DF80E3003A800F040F9D3
:102E6000814618B1484607B0BDE8F0833946304680
:102E7000FFF731FF02460E2C0BD80A4B1B689869EE
:102E800000EBC410002300932B46414601F010FBD9
:102E9000E8E7044B1B689869F4E700BF692B00085A
:102EA000D0280008A02C000838B504460D46FFF7CE
:102EB00088FDE1080E4A02EB810201E003F10802FD
:102EC00013682BB193F80CC0A445F7D19B6813602D
:102ED00045B12B684BB12C73054B53F82120AA60E8
:102EE00043F82150FFF771FD38BD01BEF3E700BF85
:102EF000D02800082DE9F0410446884616461F46B2
:102F0000C508772837D8264B1B68986900EBC51091
:102F100004F00704214601F085FB0E2D2FD8204B2D
:102F20001B68986900EBC5104246214601F0A0FBE2
:102F30000E2D28D81A4B1B68986900EBC5103A462D
:102F4000214601F079FB2CB26A09164B53F8223066
:102F500023FA05F515F0010F19D1134A3146204621
:102F600000F074F96209012303FA04F40D4B43F8ED
:102F70002240BDE8F0810A4B1B689869C8E7084BFE
:102F80001B689869D0E7064B1B689869D7E77601FC
:102F9000F6B204F1604404F5614484F80063E8E7A4
:102FA000A02C000800E100E0292D001070B50428D5
:102FB0000DD00D46114602463C4C34F810E0441C3E
:102FC0001D2C07D8E4B2394E36F8144004E00D2524
:102FD0000520F0E740F231144FF0010C0CFA02FC2E
:102FE000334A0CEA02023AB9AE44A3F800E01B8867
:102FF000A34258D2002070BDC21E182A32D8DFE882
:1030000002F00D313431310F253129313131313177
:103010002B312D3131313131312F2700254A00E05C
:10302000254A1C80002AE2D00338182836D8DFE869
:1030300000F01E353835351E2F35313535353535EF
:103040001E351E353535353535331E001B4AE8E74C
:103050001B4AE6E71B4AE4E71B4AE2E71B4AE0E7B4
:103060001B4ADEE701BE0022DBE71A4AD9E7012648
:10307000B542BCD232F81500704411FA80F11980C3
:10308000691CB142B3DA32F811407444A4B2AEE71D
:103090000226EDE71026EBE70226E9E701BE00264F
:1030A000E6E71A26E4E70C48A5E700BF24B20010C3
:1030B000280B0A0CB4B10010ECB10010F0B10010F4
:1030C00020B20010F4B1001014B2001018B20010B9
:1030D0001CB20010B8B10010000E020400207047AE
:1030E000F0B583B004460027FFF76BFC06460DF1F0
:1030F0000603A27861782078FFF758FF054668B983
:10310000BDF80630C3F3C70203F007031449895C16
:10311000012202FA03F3194218BF174605B9EFB9A5
:103120002DB13046FFF751FC284603B0F0BD0DF13C
:103130000603A27861782078FFF738FF054600285B
:10314000EFD1BDF80630C3F3C70103F0070304480D
:1031500001229A40435C13434354E2E7014DE0E708
:103160006C2B0008010E020430B583B00446FFF753
:1031700028FC05460DF10603A27861782078FFF758
:1031800015FF024660B9BDF80630C3F3C70003F06F
:103190000703074C01219940235C23EA01032354D0
:1031A00002B101BE2846FFF710FC03B030BD00BFDE
:1031B0006C2B000870B582B00D468378772B16D83B
:1031C000DA08134909688E6906EBC216C27803F063
:1031D0000704009201232A462146304601F068F98F
:1031E0000A2D08D00B2D0CD0002002B070BD084A6B
:1031F00012689669EAE701222146304601F0BAF9E1
:10320000F2E700222146304601F0B4F9ECE700BFB6
:10321000A02C000810B582B00146772810D8C3084A
:10322000094A1268906900EBC3100024009401233E
:10323000082201F0070101F03BF9204602B010BD61
:10324000014B1B689869F0E7A02C000800B583B01B
:10325000ADF8000001911146684603F0A5F903B0EE
:103260005DF804FB38B50346084850F82340084889
:1032700050F8235044B12DB1002318460BB9204615
:10328000A84738BD0123F8E70123F6E7C82B00085B
:10329000942B00082DE9F04105468846084600F0C9
:1032A00088FF06460024012718E0022229463046FE
:1032B000FFF7D8FF0136F6B2B442F6D8B8F1020FE4
:1032C0001BD0B8F1080F18D0B8F1010F18D1BFB159
:1032D0000D4B01221A7013E00134E4B20C2CEDD82E
:1032E000324629462046FFF7BDFF07460028F3D1A6
:1032F000B8F1010FF0D10026DEE7034B00221A706F
:103300003846BDE8F08100BF932B0008024600203C
:103310000C2806D8044B1B5C934203D00130C0B28A
:10332000F6E7FF20704700BF98B2001008B51238CA
:1033300020282CD8DFE800F0212B2B2B2B2B2B2B3C
:103340002B2B2B2B2B2B2B2B2B2B2B2B2B112E13FC
:1033500017191B1D1F2325272900002000E002202C
:10336000FFF7D4FF08BD0320FAE70420F8E70520A3
:10337000F6E70620F4E70720F2E70820F0E7092047
:10338000EEE70A20ECE70B20EAE70C20E8E701BEB5
:10339000FF20E5E70120E3E708B5EFF305801038EB
:1033A00000B240F2FF33984205D0FFF7BFFF034B56
:1033B00053F8200008BD0020FCE700BFC82B000820
:1033C0002DE9F04383B080460E4617469946002407
:1033D00016E099F802206B789A4201D0002325E08C
:1033E000012323E017238DF80430735C8DF805303A
:1033F0006B788DF8063001A8FFF772FEC8B1013472
:10340000BC421AD2A10006EB840595F802C0C4455F
:10341000F5D1B9F1000FE5D099F80030172BE1D1C3
:1034200099F80120735C9A42D3D00023002BE6D098
:1034300004E001A8FFF798FE00E00025284603B04D
:10344000BDE8F0832DE9F04383B007460D461646EC
:103450000024A14600E00134B44220D24FEA84089F
:1034600005EB840393F802C0BC45F4D117228DF814
:10347000042015F824208DF805205B788DF806309F
:1034800001A8FFF72DFE0028E5D101A8FFF76CFE8B
:1034900015F808200123934049EA0309DBE7484671
:1034A00003B0BDE8F0830000014B1878704700BFFF
:1034B000932B000838B50C461546FFF727FF124B33
:1034C00043F82040114B43F8205000231A4601E0F6
:1034D0000133DBB20C2B08D80B4850F8230000282E
:1034E000F6D0012A07D00132F2E72AB904B101BEB1
:1034F000074800F06DF938BD012AFCD1002CFAD044
:10350000034800F059F9F6E7C82B0008942B00088F
:10351000382300082DE9F0410446884616461F4628
:1035200004E0012288F80020E2B1E46840F28975E5
:10353000AC4217D02568002DF7D094F804C036EAC5
:103540000C03F2D1637937EA0303EED0A26839465F
:103550003046A8470028E4D1012F01D00122E1E73D
:103560000022DFE72046BDE8F08170B504460D4635
:10357000164600E0E468AC420FD02368002BF9D077
:10358000217936EA0102F5D1627912F0020FF1D108
:10359000A268022130469847ECE770BD38B5054671
:1035A0000C46FFF70EFAE36813B1FFF70EFA38BDC9
:1035B0002B68E3602C60F8E738B504460D46FFF74A
:1035C00000FA01E003F10C04236840F2897293428F
:1035D00005D0AB42F6D1EB6823600023EB60FFF728
:1035E000F4F938BD2DE9F04182B00D4600F0EDFD53
:1035F000044601238DF80730022808D0082806D099
:10360000102804D01A4B1E681A4B1F6803E0184B91
:103610001F68184B1E6823462A460DF107013846DD
:10362000FFF778FF80469DF8073063B930469DF874
:1036300007300BB9012C0ED09DF80730B3B1002034
:1036400002B0BDE8F08123462A460DF1070130465D
:10365000FFF760FFEBE72A4601463046FFF785FF9C
:103660002A4641463846FFF780FFE5E70248E7E78C
:103670004C23000848230008FF00420038B50C46E0
:1036800010212046FFF7AEFF0546042C01D0284646
:1036900038BD002002F042FF0349A1FB0031890C34
:1036A000012003F059F8F2E783DE1B4338B50C46DE
:1036B00008212046FFF796FF0546082C01D0284632
:1036C00038BD002002F02AFF0349A1FB0031890C1C
:1036D000002003F041F8F2E783DE1B4308B50846FB
:1036E0000421FFF77FFF08BD10B50446FFF77AFFFE
:1036F000042C02D0082C17D010BD4FF0E0231B691A
:1037000013F0010F04D00E4B1B7813B1012300E01E
:1037100000230C4A1370002BEED04FF0E022136907
:1037200023F001031361E7E7064B1B78002BE3D07E
:103730004FF0E022136943F001031361DCE700BF9F
:10374000FE2B0008982C000808B50846012902D174
:10375000044B1B881BB90221FFF7C6FF08BD0248B6
:10376000FCE700BFFC2B0008FF00420008B508463C
:103770000121FFF7B9FF08BD38B584468E461546CE
:103780000C4C0FCCCCF80000CCF80410CCF808207E
:10379000CCF80C3007CCCCF81000CCF81410CCF8D6
:1037A0001820CCF800508CF804E0604603F056F97D
:1037B00038BD00BFC4B2001008B5014618B10348B7
:1037C000FFF7ECFE08BD01BEF9E700BF4C2300087F
:1037D00008B5014618B10348FFF7EEFE08BD01BE6B
:1037E000F9E700BF4C23000808B503F029FD38B9FC
:1037F000164A00211648FFF7BFFF20B9154808BD3B
:1038000003F0E4F9F4E7144A01211448FFF7B4FF88
:1038100008B91048F3E7124A02211248FFF7ACFF3B
:1038200008B90C48EBE7104A03211048FFF7A4FF42
:1038300008B90848E3E70E4A04210E48FFF79CFF49
:1038400008B10020DBE70348D9E700BF6D3700105F
:10385000782C0008011A020449370010082C0008CF
:10386000DD360010242C0008AD3600105C2C00085A
:103870007D360010402C000808B5044B1B880BB1A6
:10388000034808BD002003F0C9FAFAE7FC2B000842
:10389000051A0204024600B101BE024B43F8221091
:1038A000704700BF942C000808B502F0B1FE00205C
:1038B00008BD012803D0022803D10320704702204D
:1038C0007047002070470138032809D8DFE800F06E
:1038D000020B04060220704706207047082070473C
:1038E00001BE0220704704207047814206D9091AA0
:1038F000642303FB01F1B1FBF0F07047411A64232C
:1039000003FB01F1B1FBF0F0704700002DE9F04F2F
:1039100087B004460D46174698469DF840901E23F2
:10392000037100234373FF23C371037243728372D5
:10393000994218D0FF2F1AD0FF2D02D1FF2F00F08F
:10394000DF80FFF73EF882466E4B1E68FF2D13D1D5
:10395000FF2F18D1B8F1FF0F1CD1B9F1FF0F20D103
:1039600036B300232BE09945E4D0674E9CE0B8F1D4
:10397000FF0FE1D0644E97E0132264492846FFF719
:1039800061FD0640E4E7132261493846FFF75AFD1E
:103990000640DFE712225F494046FFF753FD06402D
:1039A000DBE712225C494846FFF74CFD0640D7E7AB
:1039B0005046FFF70AF8544E76E00133DBB226FAA0
:1039C00003F212F0010FF8D017228DF814208DF8B1
:1039D000153000238DF8163005AB13224B492846CD
:1039E000FFF7EEFC834605AB132249493846FFF743
:1039F000E7FC029005AB122246494046FFF7E0FC87
:103A0000019005AB122244494846FFF7D9FC0390C8
:103A1000FF2D02D0BBF1000F0DD0FF2F01D0029B74
:103A20004BB1B8F1FF0F01D0019B23B1B9F1FF0FEA
:103A300002D0039B03B901BE05A8FFF751FB064660
:103A40005046FEF7C2FF7EBB059BA3801B0CA371F3
:103A5000FF2D2DD10EB9FF2F33D15EB9019B4BB194
:103A60000821184600F049FB064618B90123E37205
:103A700084F809805EB9039B4BB10621184600F01B
:103A80003CFB064618B90123237384F80A9056B903
:103A9000119BFBB10023637304F11003119A92E8A8
:103AA000030083E8030016B3304607B0BDE8F08F8B
:103AB0000621584600F021FB06460028CAD125728F
:103AC000C8E70821029800F018FB06460028C4D178
:103AD000E771C2E701231A46211D04F1100000F02E
:103AE0009FFB0646B0FA80F35B096373DBE7217C3A
:103AF000627C01F00301607901F0ECFD0646D3E73A
:103B0000014ED1E760B20010001F0204D8B00010CF
:103B10008CB00010FCAF001044B000102DE9F84349
:103B20000446037AFF2B0CD0D908772B05D84C48D4
:103B30000068866906EBC11604E0494909688E6988
:103B400000E00026A17AFF290ED0207BD0B1C80862
:103B5000772905D8424D2D68AF6907EBC01704E0FF
:103B60003F480068876900E0002703F0070501F07F
:103B70000708013A072A65D8DFE802F0064F6468B3
:103B80006464644F0027F0E7A14659F8180B4946D2
:103B900001F064FC10F0010F01D0002054E0494610
:103BA000206801F059FC10F0010F51D12168D1F8C3
:103BB0000832C3F30803D1F80822C2F3C032D3425B
:103BC00048D1D1F80833C3F30803002B44D176B1B0
:103BD0002946304600F0A6FC84F898002946304675
:103BE00000F0D6FC00222946304600F029FC77B1CF
:103BF0004146384600F096FC84F899004146384624
:103C000000F0C6FC00224146384600F019FC494647
:103C1000206801F07DFB012016E02268136843F064
:103C2000004313602EB194F898202946304600F0E6
:103C300007FC9FB194F899204146384600F000FCFB
:103C4000012001E001BE0020BDE8F8830120FBE770
:103C50000020F9E70020F7E70020F5E70120F3E76F
:103C6000A02C0008F8B5314D2E68FFF795FB2860B1
:103C7000002859D00446014651F8180BD0F88C5F43
:103C8000D0F8CC7F01F0ECFB15F0200F09D02368B1
:103C90002022C3F8802FD3F8803FE36C0BB110468D
:103CA000984715F0400F09D023684022C3F8802FB1
:103CB000D3F8803FE36C0BB12020984715F0010F3B
:103CC00004D0E36C13B14FF48070984715F4007F73
:103CD00013D023684FF40072C3F8802FD3F8803FCD
:103CE0002268D2F8883F43F4007123F4EE6323F096
:103CF000030303B101BEC2F8881F17F0400F09D0BB
:103D000023684022C3F8C02FD3F8C03FE36C0BB147
:103D10001020984717F0010F04D0E36C13B14FF453
:103D200000709847014B1E60F8BD00BF9C2C000836
:103D300038B50C46154602F001FC05FB04F4B0FB57
:103D4000F4F038BD2DE9F84380460E460824FF27DD
:103D5000A14601E00134E4B2102C15D806FB04F5AD
:103D600002F0ECFB00EB55012246B1FBF5F14046B9
:103D7000FFF7DEFF01463046FFF7B7FDC0B28742CE
:103D8000E8D90746A146E5E74846BDE8F8830000C4
:103D900070B504464079FFF7B9FA0546184B53F859
:103DA0002000214641F8540B04F1180201F000F9FB
:103DB000064608B1304670BD0023C4F89C30C4F8F4
:103DC000A030C4F894300F4B33F915500E4A03213C
:103DD0002846FFF73BFA002D07DB05F01F026D09AF
:103DE00001239340094A42F82530094A2146607967
:103DF000FFF760FB2268136843F000431360D9E7C4
:103E000064B20010A8B20010653C001000E100E0B0
:103E10001D3B001010B5044688B1206840B104F184
:103E2000180101F075FA206801F04EFA00232360B2
:103E300023791E2B05D194F8A43033B310BD01BEF5
:103E4000EBE76079FFF762FA1B4B33F91030002B78
:103E50000CDB03F01F015B0901228A402033174964
:103E600041F82320BFF34F8FBFF36F8F002211461D
:103E70006079FFF71FFB94F8A43013B11E23237160
:103E8000D9E7201DFFF770F9F8E7E01D00F02AF9E7
:103E900004F1080000F026F904F10A0000F022F90C
:103EA00004F1090000F01EF9637B002BC6D004F179
:103EB0001000FEF7F7FEC1E7A8B2001000E100E035
:103EC000437B0BB9334870472DE9F04704460E4653
:103ED00090460546002155F8100B01F019FA002212
:103EE00011462846FEF7B0FE30B12268136843F051
:103EF00000431360BDE8F08704F1040931464846E9
:103F0000FFF720FF0746A06500FB06F602F016FB50
:103F100000EB5600B0FBF6F631462846FEF7ABFE46
:103F2000824640BB3A4631464846FFF701FFB8F1AA
:103F3000000F01D0C8F80000002201212846FEF73A
:103F400083FE94F8703013B34FF48033E26D082A87
:103F500001D84FF4006A43EA0A03013F07F00F0754
:103F60001F43236847F000771F602268136843F0FF
:103F700000431360BEE7002201212846FEF764FEDD
:103F80002268136843F0004313605046B2E753467B
:103F9000DCE700BF061F0204F8B506460F461546CB
:103FA000FFF782FAA8B93368D3F840332C4602E011
:103FB0003368D3F84033B3F1FF3F07D1002DF7D07A
:103FC0004CB1012002F024FB013CF1E73B700020E2
:103FD000F8BD0248FCE70248FAE700BF031A0204F2
:103FE000021F020438B504460D46FFF75DFA28B1FA
:103FF000044806E02946206800F0CBFE0028F9D0EE
:10400000002038BD031A020408B5034630B139B1A7
:1040100053F8180B01F088F9002008BD01BEF6E73F
:1040200001BEF5E72DE9F04182B00C4616469846F0
:104030000A9F0546002844D0A8220021284603F004
:10404000C7FB099B01939DF82030009343463246FD
:1040500021462846FFF75AFC044618BB05F1540CCC
:104060001F4C0FCCACE80F000FCCACE80F000FCC0E
:10407000ACE80F0094E80F008CE80F00EB7A85F8AD
:1040800074305FB13B68EB653879FFF71CFC85F84D
:104090006100387AFFF70DFC85F862002846FFF7CB
:1040A00077FE044644B92FB1F96819B13A69284638
:1040B000FFF7AAFF6B7B33B96CB9204602B0BDE8AD
:1040C000F08101BEB8E700224FF4E1312846FFF746
:1040D000F7FE0446F0E72846FFF79CFEEDE700BF39
:1040E000E0B2001010B504460078FF2800D110BDE2
:1040F00000F037F8FF232370F9E770B584B0044669
:104100000D4683780B228DF80020DA088DF8012007
:1041100003F007038DF80230009BADF80C301B0C48
:104120008DF80E30039BADF808301B0C8DF80A306B
:10413000029BADF804301B0C8DF8063001A8FEF789
:10414000CFFF064610B1304604B070BD2946204668
:10415000FFF730F806460028F5D001A8FFF704F86D
:10416000F1E710B584B00446FFF754F800B101BE82
:104170000B238DF80030E3088DF8013004F00704BC
:104180008DF80240009BADF80C301B0C8DF80E3002
:10419000039BADF808301B0C8DF80A30029BADF87C
:1041A00004301B0C8DF8063001A8FEF7DDFF04B0CB
:1041B00010BD431E072B05D8DFE803F006060406F2
:1041C0000404040601BE01207047431E072B05D8D6
:1041D000DFE803F0060604060404040601BE01201D
:1041E0007047122817D8DFE800F00A180C0E1616D0
:1041F0001616161616161612161016161400082085
:104200007047042070470120704702207047062045
:10421000704706207047012070471020704700004B
:104220002DE9F04383B0044616461F460B4691B174
:1042300019780539182943D8DFE801F03A4242429B
:104240004242420F424242424242420F1C42422AF2
:1042500042424242230001BEEAE7274B93E80300B3
:1042600002AB03E9030069462046FEF7CDFC03B02C
:10427000BDE8F083214B93E8030002AB03E90300A0
:10428000F1E71F4B93E8030002AB03E90300EAE701
:104290005B7833B91B4B93E8030002AB03E90300DF
:1042A000E1E7164B93E8030002AB03E90300DAE70A
:1042B00001BE1548DBE74FF001090EE001BE0EE03C
:1042C0000025A9461148032DD1D8114B13F80580BC
:1042D0004645F0D0B9F1000F0CD0002CEED0FEF71F
:1042E00063FC024641462046FEF762FC0028BED031
:1042F000002FBCD00135E6E72CB1001034B100101E
:104300003CB1001044B1001002020204020E02048B
:1043100020B30010014B1860704700BFA02C0008AC
:10432000B0F1204F3CD018D880283BD007D9B0F549
:10433000807F3FD0244B984209D0244870471028F2
:1043400032D0402801D12248704700282ED1704732
:104350004FF4A40070471D4870471E4B98422BD065
:104360002DD31D4B98422CD8B0F1704F12D900F1CB
:10437000805001380428EED801A353F820F000BF84
:104380005143001057430010B143001099430010EF
:104390009D4300100D487047104870471048704703
:1043A000002070470F4870470F4870470748704714
:1043B0000E487047044870474FF4A0007047034808
:1043C00070470248C3E700BF06005200FF005200DA
:1043D00002005000090000A0050000F00200520099
:1043E000030052000500520001005000010052007D
:1043F00010B5104B1B6893F83330012B00D801BE69
:104400000C4B1C68236AB4F8BA201344D4F8BC20BF
:10441000D358002B0BDB084B1868FFF781FF63684C
:1044200001229A6063689B68002BFBD110BD034892
:10443000FCE700BFA02C0008A42C000802005000DC
:1044400010B5072900D901BE32F01F0300D001BE0C
:10445000164B1B689C69001BC0095B694FEA001C76
:1044600003EB0010032910D853F80C00C9004FF0DB
:104470001F0E0EFA01FE20EA0E0002F01F0202FAE1
:1044800001F1014343F80C1010BD04394368C90021
:104490004FF01F0C0CFA01FC23EA0C0302F01F0280
:1044A00002FA01F119434160EEE700BFA02C0008B9
:1044B000F8B507460D4614461E469DF818200729F4
:1044C00000D901BE34F00F0303D1012C01D0092C17
:1044D00000D101BE012E00D901BE32F01F0300D071
:1044E00001BE29463846FFF7ABFF3B680122AA40D0
:1044F00023EA020306F00106AE401E433E60084B6D
:104500001B6893F88110CB59AD000F22AA4023EA13
:10451000020304F00F04AC401C43CC51F8BD00BFB3
:10452000A02C0008072900D901BE0D4B1B689A6911
:10453000801AC0095B69020103EB0010032906D849
:104540009858C90020FA01F101F01F0070470439A2
:104550004068C90020FA01F101F01F00704700BF58
:10456000A02C0008082900D901BE0069C84000F04D
:1045700001007047072900D901BE012A00D901BEF8
:10458000012303FA01F10AB9416070478160704765
:10459000072900D901BE012303FA01F181607047A8
:1045A00000B5072900D901BE32F00F0303D1012A5B
:1045B00001D0092A00D101BE89000A4B1B6893F87B
:1045C00081E05EF800304FF00F0C0CFA01FC23EA9A
:1045D0000C0302F00F028A401A434EF800205DF8E7
:1045E00004FB00BFA02C000800B5072900D901BEBC
:1045F000012A00D901BE0A4B1B6893F882E05EF8DD
:1046000000304FF0010C0CFA01FC23EA0C0302F01D
:1046100001028A401A434EF800205DF804FB00BFF7
:10462000A02C0008082900D901BE4369012303FA20
:1046300001F1416143697047082900D901BE012A8F
:1046400000D901BE83694FF0010C0CFA01FC23EA8A
:104650000C0302F001028A401A4382617047082964
:1046600000D901BEC069C84000F0010070470000D9
:1046700000B5082900D901BE032A00D901BE4900AE
:10468000094B1B6893F880E05EF800304FF0030C94
:104690000CFA01FC23EA0C0302F003028A401A43DD
:1046A0004EF800205DF804FBA02C0008002800F064
:1046B000A280F8B50D4614460646002A00F09D80FB
:1046C000072900D901BE2368012B00D901BE636808
:1046D00033F00F0203D1012B01D0092B00D101BE11
:1046E000237A33F01F0300D001BEE368032B00D907
:1046F00001BE2369012B00D901BE6369012B00D9DA
:1047000001BE236A012B00D901BE636A012B00D9C7
:1047100001BEA36A012B00D901BEE36A032B00D9B5
:1047200001BE236B072B00D901BEE369032B00D91F
:1047300001BEA369012B00D901BE0121A9406A0075
:1047400002F1100C032303FA0CF319432C4F3B68BE
:1047500093F88300835923EA0101A36903F001035D
:10476000AB400B43E26902F0030202FA0CF213437E
:104770008351227A29463046FFF762FE6268294655
:104780003046FFF70DFFE26829463046FFF770FF1D
:10479000226929463046FFF74FFF626929463046B5
:1047A000FFF722FF3B6893F88410705820F0FF0059
:1047B000236A03F00103626A520002F0020213430B
:1047C000A26A920002F004021343E26AD20002F0ED
:1047D00018021343226B5201D2B21343AA0002F40F
:1047E0007E72934003437350226829463046FFF798
:1047F000C1FE0020F8BD034870470248FAE700BF39
:10480000A02C000801005A00082900D901BE054B60
:104810001B6893F8803018584900C84000F0030026
:10482000704700BFA02C0008084B1B68D3F8BC30B1
:104830001B58002B07DA0B0C1B0403B101BE89B215
:104840004160002070470248704700BFA02C00085C
:1048500001008A000368002B08DAC2600B0C1B04FD
:1048600003B101BE89B281600020704700487047E3
:1048700001008A000A4651B1074B1B68D3F8BC30CF
:104880001B58002B05DAC36813600020704701BE77
:10489000F2E70248704700BFA02C000801008A0020
:1048A000034B1B6803B17047014B1860FBE700BF67
:1048B000C82C0008F0B4049D234C2468002C40D080
:1048C000214C27682C2400FB04F43819DEB23E5139
:1048D000C3F3072444601B0C83601C4B1B6893F8D4
:1048E00033309E4200D301BE184B1B681C6AB3F8DC
:1048F000BA7007FB06440461446893F834309C4264
:1049000000D301BE114B1B681B6A803403EB4413B8
:1049100043618468260C360406B101BE260C3604B9
:1049200006B101BE1FFA84FC4CEA04449C60C261DB
:1049300001620023836115B1B5F900308381F0BCB9
:10494000704701BEBCE700BFC82C0008A02C0008BF
:1049500030B58FB00023ADF830300D9304460028F9
:1049600047D0A369072B00D901BEE36A002B42D0D0
:10497000236B002B41D00DF11C0C04F1140EBEE88A
:104980000F00ACE80F00DEF80030CCF800300DF17D
:10499000080CA646BEE80F00ACE80F00DEF80030B9
:1049A000CCF80030079B1733ADF83030089B0D93DF
:1049B0000CAD00950B9BA26AE16A0A98FFF77AFF9B
:1049C00000210091069B0A460598FFF773FF216BB3
:1049D000284601F0E9FDBDF93030002B07DB03F07C
:1049E0001F015B0901228A40054941F823200FB0CD
:1049F00030BD01BEB5E701BEBAE701BEBBE700BFEF
:104A000000E100E030B51546002A35D0234A12688F
:104A1000002A33D0214A14684FF02C0C0CFB0042C2
:104A20000CFB01414C681E48006890F8330084423A
:104A300026D20120A0404FEA004C5068012404FA1D
:104A400000FE14691CB3886918BB2468002C22DAA4
:104A50002C882C6044EA0C042C601469E560012465
:104A60008C614B6212694FEA1E431B0403B101BE05
:104A70001FFA8EF3936030BD01BEC7E701BEC9E7E0
:104A8000B4FBF0FC00FB1C440120A040D3E7054828
:104A9000F1E70548EFE70448EDE700BFC82C000840
:104AA000A02C000804028A0007028A0070B582B0B8
:104AB00000230193044628B323692BB363692BB306
:104AC000236A2BB36369DD682A0C0BD02A0C12040D
:104AD0001A601B6820691D4B1B68D3F8BC301B583B
:104AE000002B17DBADB24DB163691D601B68636AB3
:104AF0003BB39847002363620023A36163691B688B
:104B000002B070BD01BED7E701BED7E701BED7E74F
:104B100001BED7E701A9FFF7ADFE60B901980368B0
:104B20001E0CDBB2E2699A4206D9226A52F823309F
:104B300013B1984700E0002631462069FFF774FE64
:104B4000D0E7A36A002BD7D09847D5E7A02C000860
:104B500008B5064B1B683BB1044B1B682C2202FBBB
:104B60000030FFF7A3FF08BD01BEF5E7C82C000821
:104B7000214B1B6893F83330834238D910B50C466B
:104B8000002936D00B6813F01F0301D01B4810BD5D
:104B9000194A126892F83320904200D301BE164A97
:104BA00011680A6AB1F8BA1001FB0020144A1060BB
:104BB00004E06268002142F8231001332268B3EB5D
:104BC000521FF6D30021FFF72FFE224600210C4B87
:104BD0001868FFF73FFE08B10A48D8E70021084BE4
:104BE0001868FFF721FE0028D1D00648CFE7034818
:104BF00070470248CBE700BFA02C000803018A00E1
:104C0000CC2C000801018A0010B50B4614461AB1DD
:104C1000E4B1ABB90E4810BD0029F9D10D4A1268B4
:104C200092F83320904200D301BE0A4A11680A6A02
:104C3000B1F8BA1001FB0020074A10601846EAE7F5
:104C400006490B604C60FFF793FFE4E70048E2E79A
:104C500003018A00A02C0008CC2C0008C8280008FA
:104C60002DE9F041194B1B68DD682B6883422BD975
:104C70000C46460900F01F00012303FA00F8B9B101
:104C80000027124B18680368002B17DA6A6852F87D
:104C9000263013EA080F0FD023EA080342F8263023
:104CA00000250021FFF7C0FD54B12846BDE8F08182
:104CB000FDF787FE0746E4E7054DF2E7054DF3E70C
:104CC0003846FDF782FEF0E7034DEEE7CC2C0008F6
:104CD000020188000301880004018A000B4B1B6855
:104CE000DB681A6882420CD9410900F01F000122DA
:104CF00002FA00F05B6853F82130034203D0044805
:104D00007047044870470448704700BFCC2C000827
:104D10000101880004018A0000018800084B1B681B
:104D20009B6CC34013F0010F00D101BE044B1B6804
:104D30001B6910308002185800F00F00704700BF48
:104D4000A02C000810B4D0F8003313F0080305D0ED
:104D500000230DE0D0F84043CC5401339342F9D303
:104D60005DF8044B7047D0F8404321F813400133FD
:104D70009342F8D3F4E710B51446D0F80833C3F3E0
:104D800008039A4200D31C462246FFF7DBFF204669
:104D900010BD036813F4006F0AD08022D0F80832E7
:104DA000C3F30803934205D0C0F8401201207047B6
:104DB0004022F3E70020704710B4D0F8003213F01F
:104DC000080305D000230DE0CC5CC0F8404201335D
:104DD0009342F9D35DF8044B704731F81340C0F8A3
:104DE000404201339342F8D3F4E710B51446036808
:104DF00013F4006F0DD08023D0F80822C2F308020C
:104E00009B1AA34200D81C462246FFF7D5FF204636
:104E100010BD4023F0E70346026812F4006F07D08C
:104E2000802040081B6D13F0FF0300D01846704728
:104E30004020F6E72DE9F04105460C46036813F4DF
:104E4000006F12D08027D5F8006206F00806A26A2B
:104E5000012A0CD8D5F80832C3F308039F4202D0C8
:104E6000A36A012B18D0BDE8F0814027EBE7D4F806
:104E70002480E262013AB8F1000F00D002B901BE0D
:104E800041462846FFF7B1FFA36A1B1AA36206B189
:104E9000400040446062DDE70023A3623EBB636ADA
:104EA0001E78FDF78EFD4FF40073C5F8803FD5F8EE
:104EB000803FC5F84062FDF788FDD5F8883F23F4B0
:104EC000007222F0010242F4007223F4EE6323F038
:104ED000030303B101BEC5F8882F236843F0020322
:104EE0002360636B002BBED001209847BBE7636A49
:104EF0001E88D6E770B505460C46FFF78CFF0646C0
:104F0000A169E26901B102B901BE2846FFF733FF8A
:104F1000236A03442362E3691B1AE3614BBBA36862
:104F20001BB3E068B0421CD3013E2B6813F4006F42
:104F300019D080239E4200D301BED5F8043323F05C
:104F4000FF03F6B21E43C5F804630123C5F8C83F4A
:104F5000636823F001036360636B0BB1042098471F
:104F600070BD461EE1E74023E4E70023C5F8C83FD3
:104F7000EEE7A269D5F8001311F0080F00D0400049
:104F80001044A061B342EBD2013B2A6812F4006FD7
:104F90000CD08022934200D301BED5F8042322F026
:104FA000FF02DBB21343C5F80433D9E74022F1E72F
:104FB000002800F07F810346002900F07D8110B4B5
:104FC0000878022800D901BE487B0238C0B2062802
:104FD00000D901BE887B20B1022802D0032800D06E
:104FE00001BE91F82100012800D901BE91F82800E6
:104FF000012800D901BE0878012806D9887F48B168
:1050000048680138062805D903E0486808380828A8
:1050100000D901BE88680538042800D901BE486956
:10502000FF2800D901BE8869FF2800D901BE887C0D
:1050300030B1087818B98868092800F0828001BE6C
:10504000486B20F4366020F00D0000B101BEC86B43
:1050500020F4EE6020F0030000B101BE08780228C1
:1050600074D0486800F1FF3C087F002874D04FF4EA
:1050700080308C68082C71D84FF4006420430CF009
:105080000F0C40EA0C0040F0007018600C6B1868C0
:1050900010F4006F64D08020844200D301BE8C6B7A
:1050A000186810F4006F5DD08020844200D301BEE8
:1050B0004C6A186810F4006F56D08020844200D3E8
:1050C00001BE0878000600F040701864487F002890
:1050D0004CD040208C7C002C4AD04FF4806420437C
:1050E0000C7C002C46D04FF4807420434C7C002C68
:1050F00042D04FF400742043CC6A04F1FF3C4FEAE5
:105100000C4C0CF4702C40EA0C0091F80DC00CF122
:10511000FF3C0CF0070C40EA0C0091F80EC04FEA7F
:105120000C1C0CF0300C40EA0C009864087B28B38F
:105130004FF48070CC7B1CBB0C78022C48D0002430
:1051400020E0887B00283FF47BAF78E7887F002849
:1051500087D14FF0000C87E700208AE700248DE715
:10516000402099E74020A0E74020A7E70020B1E7D2
:105170000024B4E70024B8E70024BCE70020D9E706
:105180004FF4007420438C6804F1FF3C0CF00F0CCA
:1051900040EA0C00C3F8000391F814C088690004C9
:1051A00000F47F004CEA0000C3F81003CC6AD3F887
:1051B000000300F00F000330844201D3102C00D90B
:1051C00001BEC87F38B10878012863D0002403E00D
:1051D0004FF40074D6E70024487B013800F0070044
:1051E000204391F80EC04FEA0C1C0CF0300C40EA42
:1051F0000C005864087B00284FD04FF480748868F6
:10520000013800F00F0020430C78012C47D0002417
:105210002043C3F8000291F83000C3F8040391F86A
:10522000200000283ED04FF0007091F82140012C62
:105230003AD00024204391F82840012C37D0002494
:10524000204391F824402043186591F83800C3F8B2
:105250000402486B20F4926020F002000005000D6B
:10526000C3F8C80FC86B20F08C004005400DC3F890
:10527000880F1AB30020506010609060D0601062F8
:10528000D06250638B7F82F830300D4B93635DF8B2
:10529000044B70474FF480749EE70024AFE74FF44F
:1052A0008034B5E70020C0E74FF08074C2E74FF4C8
:1052B0008034C5E703487047024870470020E6E79E
:1052C000EFCDAB000160AA00104B03604FF04073BC
:1052D00003640023836440F20712C0F80023C0F87F
:1052E0000433C0F810334364C0F80022C0F804321D
:1052F0000365C0F8C83EC0F8883EC0F8C83FC0F893
:10530000883FC0F8083FC0F8483F70470F000003CF
:10531000036823F00043036021B100224A600A6061
:105320000A62CA6270470000F8B505460E46144688
:105330001F4653B1BA6B174B9A4200D001BE06B15B
:1053400004B901BE06B114B9F8BD01BEF2E72846A2
:10535000FFF761FDBE60FC6000233B617B6184421E
:1053600014D3441E2B6813F4006F11D080239C4289
:1053700000D301BED5F8043323F0FF03E4B21C438D
:10538000C5F804430123C5F8C83FDDE7013CE9E760
:105390004023ECE7EFCDAB0008694B69834202D8AC
:1053A0004B69C01A7047CB684A699B1A184470470A
:1053B0002DE9F04107460D46FFF72DFD8046D7F851
:1053C0000863C6F308062C6931E0002435E06B6BF6
:1053D0000BB1082098476B69A34231D10023C7F86D
:1053E000C83FECB1013C2C61EC6829463846FFF718
:1053F000D3FF201A804511D900B101383B6813F45E
:10540000006F27D08023984200D301BED7F8043321
:1054100023F0FF03C0B21843C7F80403BDE8F081CE
:10542000EC68013CDFE7AB6823F81420013E002E56
:10543000D9D00134EB68A342C7D06B69A342C6D070
:10544000D7F84023D7F8003313F0080FEBD1AB683F
:105450001A55EBE74023D6E748687047086870475D
:1054600038B504460D46D0F8003E13F0080F3FD083
:10547000D0F8CC3F13F448730AD04A681A434A6004
:10548000C0F8C03FD0F8C03F4B6B0BB1102098471D
:10549000D4F8CC3F13F4006F09D06B6843F4006379
:1054A0006B604FF40063C4F8C03FD4F8C03FD4F839
:1054B000CC3F13F0010F0DD0EB69002B52D1AB683C
:1054C0001BB129462046FFF773FF0123C4F8C03FF4
:1054D000D4F8C03FD4F8CC3F13F0040F08D06B6B66
:1054E0000BB1402098470423C4F8C03FD4F8C03F14
:1054F000D4F8003E13F0040F33D0D4F88C3F13F4EB
:10550000A0630AD02A681A432A60C4F8803FD4F8FE
:10551000803F6B6B0BB120209847D4F88C3F13F081
:10552000010F24D1D4F88C3F13F4007F0BD000225C
:10553000C4F8882F2B6823F001032B60EA626B6BA1
:105540000BB102209847D4F88C3F13F0100F08D00D
:105550006B6B0BB1802098471023C4F8803FD4F8C0
:10556000803F38BD29462046FFF7C4FCADE72946F9
:105570002046FFF75FFC0123C4F8803FD4F8803F4A
:10558000D0E70000A0B9072931D8FF2A31D81C4B39
:1055900018688368B0F878C09C445CF8210020F457
:1055A0007F40120292B202434CF821200020704743
:1055B000012801D0134870470F291CD8B2F5803F4D
:1055C0001BD20F4B18688368B0F87AC09C445CF813
:1055D000210020F47F0020F47F40130223F07F435A
:1055E00023F0FF0303434CF82130002070470548A7
:1055F000704704487047034870470248704700BF2F
:10560000A02C000801004A0030B4022804D003286E
:105610002DD02E4830BC704703294BD8B2F5803FBF
:105620004AD21F2B4AD82A4C2568A868B5F87CC0F6
:1056300084445CF8210020F47F0020F47F401202B3
:1056400022F07F4222F0FF0210434CF82100226832
:105650009068B2F87C20104450F8212022F0F80223
:10566000DB00DBB2134340F821300020D2E739BB26
:10567000B2F1807F26D21F2B26D8154C2568A8684A
:10568000B5F87EC084445CF82100C0B240EA022232
:105690004CF8212022689068B2F87E20104450F81F
:1056A000212022F0F802DB00DBB2134340F8213066
:1056B0000846AFE70548ADE70448ABE70348A9E76C
:1056C0000248A7E70148A5E70048A3E701004A0010
:1056D000A02C00081B4B1B6893F842C084452BD9B3
:1056E00003292BD809B9072A0ED9012905D0022987
:1056F00006D0032907D0144870470F2A04D9F6E7CB
:10570000032A01D9F5E7DAB900B593F875E001FA93
:105710000EF14FF0030C0CFA0EFC01EA0C0193F8A9
:1057200074C00CEA02029B68114300F5407043F814
:10573000201000205DF804FB0348704702487047C2
:1057400001487047A02C000801004A00032836D801
:1057500008B907290ED9012805D0022806D0032848
:1057600007D0194870470F2904D9F6E7032901D952
:10577000F5E731BB10B5154B1A6892F877304FF04A
:10578000030E0EFA03F392F874C092F876400CFA06
:1057900004F4234392F87540A0400EFA04FE00EA98
:1057A0000E0018430CEA01019368084340F00040E2
:1057B000C3F800049368D3F80034002010BD0248F9
:1057C00070470148704700BF01004A00A02C000844
:1057D000032826D808B907290ED9012805D00228A0
:1057E00006D0032807D0114870470F2904D9F6E7DF
:1057F000032901D9F5E7B1B90D4B1A6892F875C0C4
:1058000000FA0CF0032303FA0CF3184092F87430FA
:1058100019409368084340F08040C3F8000400201A
:105820007047024870470148704700BF01004A00B6
:10583000A02C0008054B1A681168D2F888208B58F4
:1058400023F47F4343EA00238B507047A02C0008C9
:10585000044B1B681A68D3F88830D058C0F307206F
:10586000704700BFA02C0008012800D901BE054ADE
:10587000136823F44073000200F440701843106072
:10588000704700BF0000274040F20133984200D922
:1058900001BE074AD2F8043523F4407323F0010314
:1058A00020F0FE008005800D0343C2F804357047E8
:1058B00000002640044AD2F8043523F47F0343EA6B
:1058C0000043C2F80435704700002640034AD2F86E
:1058D000043543F00043C2F8043570470000264009
:1058E000034AD2F8043523F00043C2F80435704768
:1058F00000002640032800D901BE054AD2F8003531
:1059000023F0030300F003001843C2F800057047BA
:1059100000002640054B1A681168D2F888208B5881
:1059200023F07F4343EA00638B507047A02C0008AC
:10593000034B1B681A68D3F88830D058000E7047A4
:10594000A02C0008054B1A681168D2F88C208B58DF
:1059500023F47F4343EA00238B507047A02C0008B8
:10596000044B1B681A68D3F88C30D058C0F307205A
:10597000704700BFA02C0008084B1B6893F840300C
:10598000834209D9064AE03052F8203043F0004300
:1059900042F820300020704702487047A02C0008D1
:1059A0000000264001004A00064B1B6893F8403077
:1059B000834205D9E030044B53F82000C00F7047F4
:1059C00000207047A02C000800002640034678B154
:1059D000094A126892F8402082420BD90749E03305
:1059E00051F8232022F0004241F823200020704784
:1059F0000348704702487047A02C0008000026406A
:105A000001004A000C4B1B6893F8403083420ED9CA
:105A10000F290ED8094AE03052F8203023F00F0346
:105A200001F00F01194342F820100020704704488C
:105A300070470348704700BFA02C000800002640B4
:105A400001004A00064B1B6893F84030834200D89F
:105A500001BEE030034B53F8200000F00F00704708
:105A6000A02C0008000026400C4B1B6893F8403027
:105A700083420FD903290FD8094AE03052F8203069
:105A800023F03003090101F03001194342F82010DE
:105A9000002070470348704702487047A02C000858
:105AA0000000264001004A00064B1B6893F8403076
:105AB000834200D801BEE030034B53F82000C0F30E
:105AC00001107047A02C000800002640024B186906
:105AD000C0F38000704700BF0000274010B50446A7
:105AE000094A136843F00803136003E0012000F043
:105AF000ABFD013CFFF7EAFF08B9002CF6D10CB171
:105B0000002010BD0148FCE70000274002004A00C9
:105B10000020704700207047034AD2F80C3543F04C
:105B20000043C2F80C35704700002640074BD3F8FD
:105B3000800110F0010007D11A46D3F80C3523F08C
:105B40000043C2F80C3570470148704700002640FA
:105B500003004A00064BD3F80C3523F0010328B1AB
:105B600001221343024AC2F80C3570470022F8E7BD
:105B700000002640014B1868704700BFD42C000875
:105B8000074BD3F8303503F00303032B05D0044B48
:105B9000D3F8300500F0010070470220704700BFC5
:105BA0000000264008B5FFF7EBFF022801D00020D7
:105BB00008BD014B1868FBE7D82C0008134B1B6885
:105BC00093F83E3083421DD9042904D9A1F580738E
:105BD0009BB2132B18D8FF290CD901F01F010C4BD5
:105BE00000F1C00243F82210D030042243F82020F4
:105BF0000020704701F00701D030054B43F820101A
:105C0000002070470348704702487047A02C0008E6
:105C10000000264001004A0002460C4B1B6893F826
:105C20003E30834200D801BE02F1D003084951F84A
:105C3000230000F00700042800D07047C03251F85C
:105C4000220000F01F0040F48070F6E7A02C00084E
:105C50000000264008B5284B1B6893F83E3083426D
:105C600000D801BEFFF7D8FF03280DD9B0F58A7F11
:105C700040D2B0F5887F0FD3A0F58870032835D8BF
:105C8000DFE800F0151F3127032803D8DFE800F014
:105C90003006090C00202CE000202AE0FFF76AFF04
:105CA00027E0FFF77FFF24E0FFF732FF21E0134BEF
:105CB000D3F80C35002B01DB00201AE04FF4004034
:105CC00017E0FFF703FF08B9002012E04FF400408F
:105CD0000FE00A4BD3F83C35002B01DB002008E035
:105CE0004FF4004005E0FFF715FF02E0002000E060
:105CF000034808BD0020FCE7A02C00080000264057
:105D000000127A00024BD3F88005C00F704700BF25
:105D100000002640024BD3F8900500F001007047C8
:105D2000000026400B4BD3F8882522F0405242F069
:105D30000052C3F88825D3F8802522F00042C3F82A
:105D40008025D3F88C2522F00042C3F88C25002052
:105D5000704700BF0000264010B5044600286ED0F2
:105D6000FFF7D0FF00286ED12368B3F5802F00D352
:105D700001BE2368C3F31103E279002A61D04FF01A
:105D800080721343314AC2F88035A388B3F5005FAF
:105D900000D301BE2389B3F5007F00D301BEA388E1
:105DA000C3F30C0321892A4A02EA01421343274A1A
:105DB000C2F88435A37A0F2B00D901BEE37A0F2BEA
:105DC00000D901BEA389B3F5005F00D301BEA37A59
:105DD00003F00F03E27A1201D2B21343A1891D4AE4
:105DE00002EA01221343A27B120702F0405213433E
:105DF000164AC2F88835A379042B00D901BE238A3C
:105E0000B3F5007F00D301BE1049D1F88C3523F4DF
:105E1000E063A279120202F4E0621343C1F88C3508
:105E2000D1F88C3523F0FF7323F48033208A084A9D
:105E300002EA00421343C1F88C35002010BD01BEB8
:105E40008EE700229DE70448F8E700BF00002640E7
:105E50000000FF0100FF1F0003004A00034638B3A3
:105E60001449D1F88025C2F311001860C2F3006212
:105E7000DA71D1F88425C2F30C009880C2F308428D
:105E80001A81D1F8882502F00F009872C2F303102E
:105E9000D872C2F30C209881C2F301729A73D1F8C0
:105EA0008C25C2F302219971C2F308421A8270470D
:105EB00001BED5E70000264038B50546214AD2F894
:105EC0008C3543F00043C2F88C35044603E00120D2
:105ED00000F0BAFB013C1B4BD3F8903513F0040FD4
:105EE00001D1002CF3D1174AD2F8883523F0405362
:105EF00043F00053C2F8883505B15CB1114AD2F8BD
:105F0000803543F00043C2F8803503E0012000F003
:105F10009BFB013CFFF7FEFE08B9002CF6D105B152
:105F20005CB1084AD2F8883543F04053C2F888354E
:105F30000DB12CB10025284638BDFFF7F3FEF7E779
:105F4000014DF8E70000264002004A000138074BE7
:105F50001B6893F83F30834200D801BE00F5C07043
:105F6000034B53F82000C00F704700BFA02C00085F
:105F7000000026400138074B1B6893F83F308342EE
:105F800000D801BE00F5C870034B53F8200000F0A4
:105F900001007047A02C00080000264038B50138E9
:105FA0000E4B1B6893F83F30834201D80C4838BD34
:105FB0000C4D00F5C07455F8243023F0405343F0E5
:105FC000005345F82430012000F03EFB55F8243002
:105FD00023F0004345F824300020E8E7A02C000817
:105FE00001004A000000264038B52F4B1B6893F88B
:105FF0003F30834201D22D4838BD04460D46FFF79D
:10600000A5FF002844D1AA78931EDBB20E2B41D8FD
:106010006B78002B40D0122B40D82978E87888B3D1
:106020004FF0130C61453BD378B34FF0380C61450A
:1060300038D8013C95F804C0BCF1020F12D001F031
:106040007F011B0203F4F8530B43120402F4F8120D
:106050001A43C00600F00060024304F5C0731449FF
:1060600041F82320124904F5C07451F8243023F07C
:1060700040532A79120702F04052134341F824306A
:106080000020B9E74FF0160CCCE74FF0700CCEE7CC
:106090000848B1E70548AFE70448ADE70348ABE778
:1060A0000248A9E70148A7E7A02C000801004A0020
:1060B0000000264003004A0001380F4B1B6893F88C
:1060C0003F30834215D900F5C0700C4B53F8203097
:1060D00003F07F020A70C3F304224A70C3F3044240
:1060E0008A70C3F3C062CA70C3F301730B710020DE
:1060F00070470348704700BFA02C000800002640EE
:1061000001004A0070B5451E274B1B6893F83F30CD
:10611000AB4246D90E46254A05F5C07152F82130EA
:1061200043F0004342F82130344603E0012000F000
:106130008BFA013C05F5C8731C4A52F8233013F062
:10614000010F01D1002CF1D106B1A4B105F5C07346
:10615000164A52F82330C3F30173022B01D00020FA
:1061600070BD05F5C07552F8253043F0405342F834
:1061700025300020F4E70D4C05F5C07554F82530A6
:1061800023F0405343F0005344F82530012000F041
:106190005BFA54F8253023F0004344F825300448D6
:1061A000DEE70448DCE700BFA02C00080000264022
:1061B00002004A0001004A00F8B50139072900F23F
:1061C000F280DFE811F008001200F0001600F00085
:1061D000F000F0007900764B1B78002B40F0E68051
:1061E000744B01221A700027DEE00027714B1F70EC
:1061F000DAE00024704B1C80704B1C8004E02046C9
:10620000FFF7A4FE58B901346D4B1B6893F83F307B
:10621000A3424FD3002CF2D1FFF774FDF2E72046E2
:10622000FFF7FAFC02280BD0002CECD1654AD2F81B
:10623000883523F0405343F00053C2F88835E2E735
:10624000A4B9604AD2F8883523F0405343F0005394
:10625000C2F8883500212046FFF7B0FC0123A34097
:106260009BB2554A11880B431380CCE7621E04F29F
:106270007F13544951F8233013F0405F07D002F5E3
:10628000C07351F82330C3F30173012B06D10123EE
:10629000A3409BB24949088803430B80494902F552
:1062A000C07251F8223023F0405343F0005341F8BC
:1062B0002230CFE7002777E03F4B1B88002B59D0D7
:1062C000414CFFF75DFC022802D00CB1013CF8E71D
:1062D000002C4CD13D4F374B00221A7064E0013C3A
:1062E000FFF718FD08B9002CF9D144B12DBB354A90
:1062F000D2F8883543F04053C2F888352F4601352F
:106300002F4B1B6893F83F30AB42E4D30126AE40DD
:10631000B6B2294B1B881E42F1D002212846FFF756
:106320004DFC002DDCD000E0013C2846FFF722FEAA
:106330000028DAD1002CF7D1D7E7204B1B881E426A
:106340000AD0204A05F27F1152F8213023F0405341
:1063500042F821300027D2E71A4A05F27F1152F89D
:10636000213043F0405342F821300027C7E7002591
:10637000164FC5E7FFF7C6FC88B90027ABE7013C1D
:10638000FFF7C8FC08B9002CF9D154B10D4AD2F876
:10639000883543F04053C2F8883500279BE70A4C04
:1063A000EEE70A4F97E70A4F3846F8BD084FFBE77C
:1063B000D22C0008DE2C0008D02C0008DC2C0008B1
:1063C000A02C00080000264040420F0002004200BE
:1063D000FF00420070B586B001A8FFF73FFDFFF750
:1063E00091FC38B19DF81230022B01D0012102E05E
:1063F000002100E00021019DBDF8084020469DF8E5
:106400000B3083B1022681B184B10020FFF722FC5A
:10641000A0FB0501A4FB06235408001941F100016B
:1064200001F00EF802E00126EDE7002006B070BD95
:10643000F0B583B0284B1B6893F83F20002A44D066
:106440000446002845D093F83E30834200D801BE70
:10645000214B1B6893F83F30A34201D2002535E061
:1064600069462046FFF728FE40B100231E461D4620
:106470001F4643B355B3AEB9354627E02046FFF774
:1064800065FD38B19DF80430022B01D0012302E0F4
:10649000002300E000239DF800709DF801509DF856
:1064A0000260E6E72046FFF7D5FBA0FB0707A5FB48
:1064B0000623540844EAC374001947EB530100F063
:1064C000BFFF054602E0002500E00025284603B096
:1064D000F0BD0546FAE700BFA02C000810B5044641
:1064E0000D4B1B6893F83E30834200D801BE4CB17F
